{
  "_format": "hh-sol-artifact-1",
  "contractName": "BondToken",
  "sourceName": "contracts/BondToken.sol",
  "abi": [
    {
      "inputs": [],
      "stateMutability": "nonpayable",
      "type": "constructor"
    },
    {
      "inputs": [
        {
          "internalType": "address",
          "name": "sender",
          "type": "address"
        },
        {
          "internalType": "uint256",
          "name": "balance",
          "type": "uint256"
        },
        {
          "internalType": "uint256",
          "name": "needed",
          "type": "uint256"
        },
        {
          "internalType": "uint256",
          "name": "tokenId",
          "type": "uint256"
        }
      ],
      "name": "ERC1155InsufficientBalance",
      "type": "error"
    },
    {
      "inputs": [
        {
          "internalType": "address",
          "name": "approver",
          "type": "address"
        }
      ],
      "name": "ERC1155InvalidApprover",
      "type": "error"
    },
    {
      "inputs": [
        {
          "internalType": "uint256",
          "name": "idsLength",
          "type": "uint256"
        },
        {
          "internalType": "uint256",
          "name": "valuesLength",
          "type": "uint256"
        }
      ],
      "name": "ERC1155InvalidArrayLength",
      "type": "error"
    },
    {
      "inputs": [
        {
          "internalType": "address",
          "name": "operator",
          "type": "address"
        }
      ],
      "name": "ERC1155InvalidOperator",
      "type": "error"
    },
    {
      "inputs": [
        {
          "internalType": "address",
          "name": "receiver",
          "type": "address"
        }
      ],
      "name": "ERC1155InvalidReceiver",
      "type": "error"
    },
    {
      "inputs": [
        {
          "internalType": "address",
          "name": "sender",
          "type": "address"
        }
      ],
      "name": "ERC1155InvalidSender",
      "type": "error"
    },
    {
      "inputs": [
        {
          "internalType": "address",
          "name": "operator",
          "type": "address"
        },
        {
          "internalType": "address",
          "name": "owner",
          "type": "address"
        }
      ],
      "name": "ERC1155MissingApprovalForAll",
      "type": "error"
    },
    {
      "inputs": [
        {
          "internalType": "address",
          "name": "owner",
          "type": "address"
        }
      ],
      "name": "OwnableInvalidOwner",
      "type": "error"
    },
    {
      "inputs": [
        {
          "internalType": "address",
          "name": "account",
          "type": "address"
        }
      ],
      "name": "OwnableUnauthorizedAccount",
      "type": "error"
    },
    {
      "anonymous": false,
      "inputs": [
        {
          "indexed": true,
          "internalType": "address",
          "name": "account",
          "type": "address"
        },
        {
          "indexed": true,
          "internalType": "address",
          "name": "operator",
          "type": "address"
        },
        {
          "indexed": false,
          "internalType": "bool",
          "name": "approved",
          "type": "bool"
        }
      ],
      "name": "ApprovalForAll",
      "type": "event"
    },
    {
      "anonymous": false,
      "inputs": [
        {
          "indexed": true,
          "internalType": "address",
          "name": "previousOwner",
          "type": "address"
        },
        {
          "indexed": true,
          "internalType": "address",
          "name": "newOwner",
          "type": "address"
        }
      ],
      "name": "OwnershipTransferred",
      "type": "event"
    },
    {
      "anonymous": false,
      "inputs": [
        {
          "indexed": true,
          "internalType": "address",
          "name": "operator",
          "type": "address"
        },
        {
          "indexed": true,
          "internalType": "address",
          "name": "from",
          "type": "address"
        },
        {
          "indexed": true,
          "internalType": "address",
          "name": "to",
          "type": "address"
        },
        {
          "indexed": false,
          "internalType": "uint256[]",
          "name": "ids",
          "type": "uint256[]"
        },
        {
          "indexed": false,
          "internalType": "uint256[]",
          "name": "values",
          "type": "uint256[]"
        }
      ],
      "name": "TransferBatch",
      "type": "event"
    },
    {
      "anonymous": false,
      "inputs": [
        {
          "indexed": true,
          "internalType": "address",
          "name": "operator",
          "type": "address"
        },
        {
          "indexed": true,
          "internalType": "address",
          "name": "from",
          "type": "address"
        },
        {
          "indexed": true,
          "internalType": "address",
          "name": "to",
          "type": "address"
        },
        {
          "indexed": false,
          "internalType": "uint256",
          "name": "id",
          "type": "uint256"
        },
        {
          "indexed": false,
          "internalType": "uint256",
          "name": "value",
          "type": "uint256"
        }
      ],
      "name": "TransferSingle",
      "type": "event"
    },
    {
      "anonymous": false,
      "inputs": [
        {
          "indexed": false,
          "internalType": "string",
          "name": "value",
          "type": "string"
        },
        {
          "indexed": true,
          "internalType": "uint256",
          "name": "id",
          "type": "uint256"
        }
      ],
      "name": "URI",
      "type": "event"
    },
    {
      "inputs": [
        {
          "internalType": "address",
          "name": "account",
          "type": "address"
        },
        {
          "internalType": "uint256",
          "name": "id",
          "type": "uint256"
        }
      ],
      "name": "balanceOf",
      "outputs": [
        {
          "internalType": "uint256",
          "name": "",
          "type": "uint256"
        }
      ],
      "stateMutability": "view",
      "type": "function"
    },
    {
      "inputs": [
        {
          "internalType": "address[]",
          "name": "accounts",
          "type": "address[]"
        },
        {
          "internalType": "uint256[]",
          "name": "ids",
          "type": "uint256[]"
        }
      ],
      "name": "balanceOfBatch",
      "outputs": [
        {
          "internalType": "uint256[]",
          "name": "",
          "type": "uint256[]"
        }
      ],
      "stateMutability": "view",
      "type": "function"
    },
    {
      "inputs": [
        {
          "internalType": "uint256",
          "name": "id",
          "type": "uint256"
        }
      ],
      "name": "exists",
      "outputs": [
        {
          "internalType": "bool",
          "name": "",
          "type": "bool"
        }
      ],
      "stateMutability": "view",
      "type": "function"
    },
    {
      "inputs": [
        {
          "internalType": "address",
          "name": "account",
          "type": "address"
        },
        {
          "internalType": "address",
          "name": "operator",
          "type": "address"
        }
      ],
      "name": "isApprovedForAll",
      "outputs": [
        {
          "internalType": "bool",
          "name": "",
          "type": "bool"
        }
      ],
      "stateMutability": "view",
      "type": "function"
    },
    {
      "inputs": [
        {
          "internalType": "address",
          "name": "account",
          "type": "address"
        },
        {
          "internalType": "uint256",
          "name": "id",
          "type": "uint256"
        },
        {
          "internalType": "uint256",
          "name": "amount",
          "type": "uint256"
        },
        {
          "internalType": "string",
          "name": "tokenUri",
          "type": "string"
        },
        {
          "internalType": "bytes",
          "name": "data",
          "type": "bytes"
        }
      ],
      "name": "mint",
      "outputs": [],
      "stateMutability": "nonpayable",
      "type": "function"
    },
    {
      "inputs": [
        {
          "internalType": "address",
          "name": "to",
          "type": "address"
        },
        {
          "internalType": "uint256[]",
          "name": "ids",
          "type": "uint256[]"
        },
        {
          "internalType": "uint256[]",
          "name": "amounts",
          "type": "uint256[]"
        },
        {
          "internalType": "bytes",
          "name": "data",
          "type": "bytes"
        }
      ],
      "name": "mintBatch",
      "outputs": [],
      "stateMutability": "nonpayable",
      "type": "function"
    },
    {
      "inputs": [],
      "name": "owner",
      "outputs": [
        {
          "internalType": "address",
          "name": "",
          "type": "address"
        }
      ],
      "stateMutability": "view",
      "type": "function"
    },
    {
      "inputs": [],
      "name": "renounceOwnership",
      "outputs": [],
      "stateMutability": "nonpayable",
      "type": "function"
    },
    {
      "inputs": [
        {
          "internalType": "address",
          "name": "from",
          "type": "address"
        },
        {
          "internalType": "address",
          "name": "to",
          "type": "address"
        },
        {
          "internalType": "uint256[]",
          "name": "ids",
          "type": "uint256[]"
        },
        {
          "internalType": "uint256[]",
          "name": "values",
          "type": "uint256[]"
        },
        {
          "internalType": "bytes",
          "name": "data",
          "type": "bytes"
        }
      ],
      "name": "safeBatchTransferFrom",
      "outputs": [],
      "stateMutability": "nonpayable",
      "type": "function"
    },
    {
      "inputs": [
        {
          "internalType": "address",
          "name": "from",
          "type": "address"
        },
        {
          "internalType": "address",
          "name": "to",
          "type": "address"
        },
        {
          "internalType": "uint256",
          "name": "id",
          "type": "uint256"
        },
        {
          "internalType": "uint256",
          "name": "value",
          "type": "uint256"
        },
        {
          "internalType": "bytes",
          "name": "data",
          "type": "bytes"
        }
      ],
      "name": "safeTransferFrom",
      "outputs": [],
      "stateMutability": "nonpayable",
      "type": "function"
    },
    {
      "inputs": [
        {
          "internalType": "address",
          "name": "operator",
          "type": "address"
        },
        {
          "internalType": "bool",
          "name": "approved",
          "type": "bool"
        }
      ],
      "name": "setApprovalForAll",
      "outputs": [],
      "stateMutability": "nonpayable",
      "type": "function"
    },
    {
      "inputs": [
        {
          "internalType": "uint256",
          "name": "id",
          "type": "uint256"
        },
        {
          "internalType": "string",
          "name": "newuri",
          "type": "string"
        }
      ],
      "name": "setTokenURI",
      "outputs": [],
      "stateMutability": "nonpayable",
      "type": "function"
    },
    {
      "inputs": [
        {
          "internalType": "string",
          "name": "newuri",
          "type": "string"
        }
      ],
      "name": "setURI",
      "outputs": [],
      "stateMutability": "nonpayable",
      "type": "function"
    },
    {
      "inputs": [
        {
          "internalType": "bytes4",
          "name": "interfaceId",
          "type": "bytes4"
        }
      ],
      "name": "supportsInterface",
      "outputs": [
        {
          "internalType": "bool",
          "name": "",
          "type": "bool"
        }
      ],
      "stateMutability": "view",
      "type": "function"
    },
    {
      "inputs": [],
      "name": "totalSupply",
      "outputs": [
        {
          "internalType": "uint256",
          "name": "",
          "type": "uint256"
        }
      ],
      "stateMutability": "view",
      "type": "function"
    },
    {
      "inputs": [
        {
          "internalType": "uint256",
          "name": "id",
          "type": "uint256"
        }
      ],
      "name": "totalSupply",
      "outputs": [
        {
          "internalType": "uint256",
          "name": "",
          "type": "uint256"
        }
      ],
      "stateMutability": "view",
      "type": "function"
    },
    {
      "inputs": [
        {
          "internalType": "address",
          "name": "newOwner",
          "type": "address"
        }
      ],
      "name": "transferOwnership",
      "outputs": [],
      "stateMutability": "nonpayable",
      "type": "function"
    },
    {
      "inputs": [
        {
          "internalType": "uint256",
          "name": "id",
          "type": "uint256"
        }
      ],
      "name": "uri",
      "outputs": [
        {
          "internalType": "string",
          "name": "",
          "type": "string"
        }
      ],
      "stateMutability": "view",
      "type": "function"
    }
  ],
  "bytecode": "0x60806040523480156200001157600080fd5b5033604051806020016040528060008152506200003481620000c260201b60201c565b50600073ffffffffffffffffffffffffffffffffffffffff168173ffffffffffffffffffffffffffffffffffffffff1603620000aa5760006040517f1e4fbdf7000000000000000000000000000000000000000000000000000000008152600401620000a19190620001e2565b60405180910390fd5b620000bb81620000d760201b60201c565b5062000560565b8060029081620000d3919062000479565b5050565b6000600360009054906101000a900473ffffffffffffffffffffffffffffffffffffffff16905081600360006101000a81548173ffffffffffffffffffffffffffffffffffffffff021916908373ffffffffffffffffffffffffffffffffffffffff1602179055508173ffffffffffffffffffffffffffffffffffffffff168173ffffffffffffffffffffffffffffffffffffffff167f8be0079c531659141344cd1fd0a4f28419497f9722a3daafe3b4186f6b6457e060405160405180910390a35050565b600073ffffffffffffffffffffffffffffffffffffffff82169050919050565b6000620001ca826200019d565b9050919050565b620001dc81620001bd565b82525050565b6000602082019050620001f96000830184620001d1565b92915050565b600081519050919050565b7f4e487b7100000000000000000000000000000000000000000000000000000000600052604160045260246000fd5b7f4e487b7100000000000000000000000000000000000000000000000000000000600052602260045260246000fd5b600060028204905060018216806200028157607f821691505b60208210810362000297576200029662000239565b5b50919050565b60008190508160005260206000209050919050565b60006020601f8301049050919050565b600082821b905092915050565b600060088302620003017fffffffffffffffffffffffffffffffffffffffffffffffffffffffffffffffff82620002c2565b6200030d8683620002c2565b95508019841693508086168417925050509392505050565b6000819050919050565b6000819050919050565b60006200035a620003546200034e8462000325565b6200032f565b62000325565b9050919050565b6000819050919050565b620003768362000339565b6200038e620003858262000361565b848454620002cf565b825550505050565b600090565b620003a562000396565b620003b28184846200036b565b505050565b5b81811015620003da57620003ce6000826200039b565b600181019050620003b8565b5050565b601f8211156200042957620003f3816200029d565b620003fe84620002b2565b810160208510156200040e578190505b620004266200041d85620002b2565b830182620003b7565b50505b505050565b600082821c905092915050565b60006200044e600019846008026200042e565b1980831691505092915050565b60006200046983836200043b565b9150826002028217905092915050565b6200048482620001ff565b67ffffffffffffffff811115620004a0576200049f6200020a565b5b620004ac825462000268565b620004b9828285620003de565b600060209050601f831160018114620004f15760008415620004dc578287015190505b620004e885826200045b565b86555062000558565b601f19841662000501866200029d565b60005b828110156200052b5784890151825560018201915060208501945060208101905062000504565b868310156200054b578489015162000547601f8916826200043b565b8355505b6001600288020188555050505b505050505050565b612d6480620005706000396000f3fe608060405234801561001057600080fd5b50600436106101155760003560e01c80634f558e79116100a2578063a4b645eb11610071578063a4b645eb146102dc578063bd85b039146102f8578063e985e9c514610328578063f242432a14610358578063f2fde38b1461037457610115565b80634f558e7914610268578063715018a6146102985780638da5cb5b146102a2578063a22cb465146102c057610115565b8063162094c4116100e9578063162094c4146101c657806318160ddd146101e25780631f7fdffa146102005780632eb2c2d61461021c5780634e1273f41461023857610115565b8062fdd58e1461011a57806301ffc9a71461014a57806302fe53051461017a5780630e89341c14610196575b600080fd5b610134600480360381019061012f9190611c16565b610390565b6040516101419190611c65565b60405180910390f35b610164600480360381019061015f9190611cd8565b6103ea565b6040516101719190611d20565b60405180910390f35b610194600480360381019061018f9190611e81565b6104cc565b005b6101b060048036038101906101ab9190611eca565b6104e0565b6040516101bd9190611f76565b60405180910390f35b6101e060048036038101906101db9190611f98565b6105a7565b005b6101ea61060c565b6040516101f79190611c65565b60405180910390f35b61021a6004803603810190610215919061215d565b610616565b005b61023660048036038101906102319190612218565b610630565b005b610252600480360381019061024d91906123aa565b6106d8565b60405161025f91906124e0565b60405180910390f35b610282600480360381019061027d9190611eca565b6107e7565b60405161028f9190611d20565b60405180910390f35b6102a06107fb565b005b6102aa61080f565b6040516102b79190612511565b60405180910390f35b6102da60048036038101906102d59190612558565b610839565b005b6102f660048036038101906102f19190612598565b61084f565b005b610312600480360381019061030d9190611eca565b6108ce565b60405161031f9190611c65565b60405180910390f35b610342600480360381019061033d919061264b565b6108eb565b60405161034f9190611d20565b60405180910390f35b610372600480360381019061036d919061268b565b61097f565b005b61038e60048036038101906103899190612722565b610a27565b005b600080600083815260200190815260200160002060008473ffffffffffffffffffffffffffffffffffffffff1673ffffffffffffffffffffffffffffffffffffffff16815260200190815260200160002054905092915050565b60007fd9b67a26000000000000000000000000000000000000000000000000000000007bffffffffffffffffffffffffffffffffffffffffffffffffffffffff1916827bffffffffffffffffffffffffffffffffffffffffffffffffffffffff191614806104b557507f0e89341c000000000000000000000000000000000000000000000000000000007bffffffffffffffffffffffffffffffffffffffffffffffffffffffff1916827bffffffffffffffffffffffffffffffffffffffffffffffffffffffff1916145b806104c557506104c482610aad565b5b9050919050565b6104d4610b17565b6104dd81610b9e565b50565b606060006006600084815260200190815260200160002080546105029061277e565b80601f016020809104026020016040519081016040528092919081815260200182805461052e9061277e565b801561057b5780601f106105505761010080835404028352916020019161057b565b820191906000526020600020905b81548152906001019060200180831161055e57829003601f168201915b5050505050905060008151111561059557809150506105a2565b61059e83610bb1565b9150505b919050565b6105af610b17565b806006600084815260200190815260200160002090816105cf919061295b565b50817f6bb7ff708619ba0610cba295a58592e0451dee2622938c8755667688daf3529b826040516106009190611f76565b60405180910390a25050565b6000600554905090565b61061e610b17565b61062a84848484610c45565b50505050565b600061063a610ccb565b90508073ffffffffffffffffffffffffffffffffffffffff168673ffffffffffffffffffffffffffffffffffffffff161415801561067f575061067d86826108eb565b155b156106c35780866040517fe237d9220000000000000000000000000000000000000000000000000000000081526004016106ba929190612a2d565b60405180910390fd5b6106d08686868686610cd3565b505050505050565b6060815183511461072457815183516040517f5b05999100000000000000000000000000000000000000000000000000000000815260040161071b929190612a56565b60405180910390fd5b6000835167ffffffffffffffff81111561074157610740611d56565b5b60405190808252806020026020018201604052801561076f5781602001602082028036833780820191505090505b50905060005b84518110156107dc576107ac6107948287610dcb90919063ffffffff16565b6107a78387610ddf90919063ffffffff16565b610390565b8282815181106107bf576107be612a7f565b5b602002602001018181525050806107d590612add565b9050610775565b508091505092915050565b6000806107f3836108ce565b119050919050565b610803610b17565b61080d6000610df3565b565b6000600360009054906101000a900473ffffffffffffffffffffffffffffffffffffffff16905090565b61084b610844610ccb565b8383610eb9565b5050565b610857610b17565b61086385858584611029565b6000825111156108c7578160066000868152602001908152602001600020908161088d919061295b565b50837f6bb7ff708619ba0610cba295a58592e0451dee2622938c8755667688daf3529b836040516108be9190611f76565b60405180910390a25b5050505050565b600060046000838152602001908152602001600020549050919050565b6000600160008473ffffffffffffffffffffffffffffffffffffffff1673ffffffffffffffffffffffffffffffffffffffff16815260200190815260200160002060008373ffffffffffffffffffffffffffffffffffffffff1673ffffffffffffffffffffffffffffffffffffffff16815260200190815260200160002060009054906101000a900460ff16905092915050565b6000610989610ccb565b90508073ffffffffffffffffffffffffffffffffffffffff168673ffffffffffffffffffffffffffffffffffffffff16141580156109ce57506109cc86826108eb565b155b15610a125780866040517fe237d922000000000000000000000000000000000000000000000000000000008152600401610a09929190612a2d565b60405180910390fd5b610a1f86868686866110c2565b505050505050565b610a2f610b17565b600073ffffffffffffffffffffffffffffffffffffffff168173ffffffffffffffffffffffffffffffffffffffff1603610aa15760006040517f1e4fbdf7000000000000000000000000000000000000000000000000000000008152600401610a989190612511565b60405180910390fd5b610aaa81610df3565b50565b60007f01ffc9a7000000000000000000000000000000000000000000000000000000007bffffffffffffffffffffffffffffffffffffffffffffffffffffffff1916827bffffffffffffffffffffffffffffffffffffffffffffffffffffffff1916149050919050565b610b1f610ccb565b73ffffffffffffffffffffffffffffffffffffffff16610b3d61080f565b73ffffffffffffffffffffffffffffffffffffffff1614610b9c57610b60610ccb565b6040517f118cdaa7000000000000000000000000000000000000000000000000000000008152600401610b939190612511565b60405180910390fd5b565b8060029081610bad919061295b565b5050565b606060028054610bc09061277e565b80601f0160208091040260200160405190810160405280929190818152602001828054610bec9061277e565b8015610c395780601f10610c0e57610100808354040283529160200191610c39565b820191906000526020600020905b815481529060010190602001808311610c1c57829003601f168201915b50505050509050919050565b600073ffffffffffffffffffffffffffffffffffffffff168473ffffffffffffffffffffffffffffffffffffffff1603610cb75760006040517f57f447ce000000000000000000000000000000000000000000000000000000008152600401610cae9190612511565b60405180910390fd5b610cc56000858585856111cd565b50505050565b600033905090565b600073ffffffffffffffffffffffffffffffffffffffff168473ffffffffffffffffffffffffffffffffffffffff1603610d455760006040517f57f447ce000000000000000000000000000000000000000000000000000000008152600401610d3c9190612511565b60405180910390fd5b600073ffffffffffffffffffffffffffffffffffffffff168573ffffffffffffffffffffffffffffffffffffffff1603610db75760006040517f01a83514000000000000000000000000000000000000000000000000000000008152600401610dae9190612511565b60405180910390fd5b610dc485858585856111cd565b5050505050565b600060208202602084010151905092915050565b600060208202602084010151905092915050565b6000600360009054906101000a900473ffffffffffffffffffffffffffffffffffffffff16905081600360006101000a81548173ffffffffffffffffffffffffffffffffffffffff021916908373ffffffffffffffffffffffffffffffffffffffff1602179055508173ffffffffffffffffffffffffffffffffffffffff168173ffffffffffffffffffffffffffffffffffffffff167f8be0079c531659141344cd1fd0a4f28419497f9722a3daafe3b4186f6b6457e060405160405180910390a35050565b600073ffffffffffffffffffffffffffffffffffffffff168273ffffffffffffffffffffffffffffffffffffffff1603610f2b5760006040517fced3e100000000000000000000000000000000000000000000000000000000008152600401610f229190612511565b60405180910390fd5b80600160008573ffffffffffffffffffffffffffffffffffffffff1673ffffffffffffffffffffffffffffffffffffffff16815260200190815260200160002060008473ffffffffffffffffffffffffffffffffffffffff1673ffffffffffffffffffffffffffffffffffffffff16815260200190815260200160002060006101000a81548160ff0219169083151502179055508173ffffffffffffffffffffffffffffffffffffffff168373ffffffffffffffffffffffffffffffffffffffff167f17307eab39ab6107e8899845ad3d59bd9653f200f220920489ca2b5937696c318360405161101c9190611d20565b60405180910390a3505050565b600073ffffffffffffffffffffffffffffffffffffffff168473ffffffffffffffffffffffffffffffffffffffff160361109b5760006040517f57f447ce0000000000000000000000000000000000000000000000000000000081526004016110929190612511565b60405180910390fd5b6000806110a8858561127f565b915091506110ba6000878484876111cd565b505050505050565b600073ffffffffffffffffffffffffffffffffffffffff168473ffffffffffffffffffffffffffffffffffffffff16036111345760006040517f57f447ce00000000000000000000000000000000000000000000000000000000815260040161112b9190612511565b60405180910390fd5b600073ffffffffffffffffffffffffffffffffffffffff168573ffffffffffffffffffffffffffffffffffffffff16036111a65760006040517f01a8351400000000000000000000000000000000000000000000000000000000815260040161119d9190612511565b60405180910390fd5b6000806111b3858561127f565b915091506111c487878484876111cd565b50505050505050565b6111d9858585856112af565b600073ffffffffffffffffffffffffffffffffffffffff168473ffffffffffffffffffffffffffffffffffffffff1614611278576000611217610ccb565b90506001845103611267576000611238600086610ddf90919063ffffffff16565b90506000611250600086610ddf90919063ffffffff16565b90506112608389898585896112c1565b5050611276565b611275818787878787611475565b5b505b5050505050565b60608060405191506001825283602083015260408201905060018152826020820152604081016040529250929050565b6112bb84848484611629565b50505050565b60008473ffffffffffffffffffffffffffffffffffffffff163b111561146d578373ffffffffffffffffffffffffffffffffffffffff1663f23a6e6187878686866040518663ffffffff1660e01b8152600401611322959493929190612b7a565b6020604051808303816000875af192505050801561135e57506040513d601f19601f8201168201806040525081019061135b9190612be9565b60015b6113e2573d806000811461138e576040519150601f19603f3d011682016040523d82523d6000602084013e611393565b606091505b5060008151036113da57846040517f57f447ce0000000000000000000000000000000000000000000000000000000081526004016113d19190612511565b60405180910390fd5b805160208201fd5b63f23a6e6160e01b7bffffffffffffffffffffffffffffffffffffffffffffffffffffffff1916817bffffffffffffffffffffffffffffffffffffffffffffffffffffffff19161461146b57846040517f57f447ce0000000000000000000000000000000000000000000000000000000081526004016114629190612511565b60405180910390fd5b505b505050505050565b60008473ffffffffffffffffffffffffffffffffffffffff163b1115611621578373ffffffffffffffffffffffffffffffffffffffff1663bc197c8187878686866040518663ffffffff1660e01b81526004016114d6959493929190612c16565b6020604051808303816000875af192505050801561151257506040513d601f19601f8201168201806040525081019061150f9190612be9565b60015b611596573d8060008114611542576040519150601f19603f3d011682016040523d82523d6000602084013e611547565b606091505b50600081510361158e57846040517f57f447ce0000000000000000000000000000000000000000000000000000000081526004016115859190612511565b60405180910390fd5b805160208201fd5b63bc197c8160e01b7bffffffffffffffffffffffffffffffffffffffffffffffffffffffff1916817bffffffffffffffffffffffffffffffffffffffffffffffffffffffff19161461161f57846040517f57f447ce0000000000000000000000000000000000000000000000000000000081526004016116169190612511565b60405180910390fd5b505b505050505050565b611635848484846117c0565b600073ffffffffffffffffffffffffffffffffffffffff168473ffffffffffffffffffffffffffffffffffffffff1603611705576000805b83518110156116e957600061168b8285610ddf90919063ffffffff16565b905080600460006116a58589610ddf90919063ffffffff16565b815260200190815260200160002060008282546116c29190612c7e565b9250508190555080836116d59190612c7e565b925050806116e290612add565b905061166d565b5080600560008282546116fc9190612c7e565b92505081905550505b600073ffffffffffffffffffffffffffffffffffffffff168373ffffffffffffffffffffffffffffffffffffffff16036117ba576000805b83518110156117a757600061175b8285610ddf90919063ffffffff16565b905080600460006117758589610ddf90919063ffffffff16565b815260200190815260200160002060008282540392505081905550808301925050806117a090612add565b905061173d565b5080600560008282540392505081905550505b50505050565b805182511461180a57815181516040517f5b059991000000000000000000000000000000000000000000000000000000008152600401611801929190612a56565b60405180910390fd5b6000611814610ccb565b905060005b8351811015611a295760006118378286610ddf90919063ffffffff16565b9050600061184e8386610ddf90919063ffffffff16565b9050600073ffffffffffffffffffffffffffffffffffffffff168873ffffffffffffffffffffffffffffffffffffffff161461197b57600080600084815260200190815260200160002060008a73ffffffffffffffffffffffffffffffffffffffff1673ffffffffffffffffffffffffffffffffffffffff1681526020019081526020016000205490508181101561192357888183856040517f03dee4c500000000000000000000000000000000000000000000000000000000815260040161191a9493929190612cb2565b60405180910390fd5b81810360008085815260200190815260200160002060008b73ffffffffffffffffffffffffffffffffffffffff1673ffffffffffffffffffffffffffffffffffffffff16815260200190815260200160002081905550505b600073ffffffffffffffffffffffffffffffffffffffff168773ffffffffffffffffffffffffffffffffffffffff1614611a16578060008084815260200190815260200160002060008973ffffffffffffffffffffffffffffffffffffffff1673ffffffffffffffffffffffffffffffffffffffff1681526020019081526020016000206000828254611a0e9190612c7e565b925050819055505b505080611a2290612add565b9050611819565b506001835103611ae8576000611a49600085610ddf90919063ffffffff16565b90506000611a61600085610ddf90919063ffffffff16565b90508573ffffffffffffffffffffffffffffffffffffffff168773ffffffffffffffffffffffffffffffffffffffff168473ffffffffffffffffffffffffffffffffffffffff167fc3d58168c5ae7397731d063d5bbf3d657854427343f4c083240f7aacaa2d0f628585604051611ad9929190612a56565b60405180910390a45050611b67565b8373ffffffffffffffffffffffffffffffffffffffff168573ffffffffffffffffffffffffffffffffffffffff168273ffffffffffffffffffffffffffffffffffffffff167f4a39dc06d4c0dbc64b70af90fd698a233a518aa5d07e595d983b8c0526c8f7fb8686604051611b5e929190612cf7565b60405180910390a45b5050505050565b6000604051905090565b600080fd5b600080fd5b600073ffffffffffffffffffffffffffffffffffffffff82169050919050565b6000611bad82611b82565b9050919050565b611bbd81611ba2565b8114611bc857600080fd5b50565b600081359050611bda81611bb4565b92915050565b6000819050919050565b611bf381611be0565b8114611bfe57600080fd5b50565b600081359050611c1081611bea565b92915050565b60008060408385031215611c2d57611c2c611b78565b5b6000611c3b85828601611bcb565b9250506020611c4c85828601611c01565b9150509250929050565b611c5f81611be0565b82525050565b6000602082019050611c7a6000830184611c56565b92915050565b60007fffffffff0000000000000000000000000000000000000000000000000000000082169050919050565b611cb581611c80565b8114611cc057600080fd5b50565b600081359050611cd281611cac565b92915050565b600060208284031215611cee57611ced611b78565b5b6000611cfc84828501611cc3565b91505092915050565b60008115159050919050565b611d1a81611d05565b82525050565b6000602082019050611d356000830184611d11565b92915050565b600080fd5b600080fd5b6000601f19601f8301169050919050565b7f4e487b7100000000000000000000000000000000000000000000000000000000600052604160045260246000fd5b611d8e82611d45565b810181811067ffffffffffffffff82111715611dad57611dac611d56565b5b80604052505050565b6000611dc0611b6e565b9050611dcc8282611d85565b919050565b600067ffffffffffffffff821115611dec57611deb611d56565b5b611df582611d45565b9050602081019050919050565b82818337600083830152505050565b6000611e24611e1f84611dd1565b611db6565b905082815260208101848484011115611e4057611e3f611d40565b5b611e4b848285611e02565b509392505050565b600082601f830112611e6857611e67611d3b565b5b8135611e78848260208601611e11565b91505092915050565b600060208284031215611e9757611e96611b78565b5b600082013567ffffffffffffffff811115611eb557611eb4611b7d565b5b611ec184828501611e53565b91505092915050565b600060208284031215611ee057611edf611b78565b5b6000611eee84828501611c01565b91505092915050565b600081519050919050565b600082825260208201905092915050565b60005b83811015611f31578082015181840152602081019050611f16565b60008484015250505050565b6000611f4882611ef7565b611f528185611f02565b9350611f62818560208601611f13565b611f6b81611d45565b840191505092915050565b60006020820190508181036000830152611f908184611f3d565b905092915050565b60008060408385031215611faf57611fae611b78565b5b6000611fbd85828601611c01565b925050602083013567ffffffffffffffff811115611fde57611fdd611b7d565b5b611fea85828601611e53565b9150509250929050565b600067ffffffffffffffff82111561200f5761200e611d56565b5b602082029050602081019050919050565b600080fd5b600061203861203384611ff4565b611db6565b9050808382526020820190506020840283018581111561205b5761205a612020565b5b835b8181101561208457806120708882611c01565b84526020840193505060208101905061205d565b5050509392505050565b600082601f8301126120a3576120a2611d3b565b5b81356120b3848260208601612025565b91505092915050565b600067ffffffffffffffff8211156120d7576120d6611d56565b5b6120e082611d45565b9050602081019050919050565b60006121006120fb846120bc565b611db6565b90508281526020810184848401111561211c5761211b611d40565b5b612127848285611e02565b509392505050565b600082601f83011261214457612143611d3b565b5b81356121548482602086016120ed565b91505092915050565b6000806000806080858703121561217757612176611b78565b5b600061218587828801611bcb565b945050602085013567ffffffffffffffff8111156121a6576121a5611b7d565b5b6121b28782880161208e565b935050604085013567ffffffffffffffff8111156121d3576121d2611b7d565b5b6121df8782880161208e565b925050606085013567ffffffffffffffff811115612200576121ff611b7d565b5b61220c8782880161212f565b91505092959194509250565b600080600080600060a0868803121561223457612233611b78565b5b600061224288828901611bcb565b955050602061225388828901611bcb565b945050604086013567ffffffffffffffff81111561227457612273611b7d565b5b6122808882890161208e565b935050606086013567ffffffffffffffff8111156122a1576122a0611b7d565b5b6122ad8882890161208e565b925050608086013567ffffffffffffffff8111156122ce576122cd611b7d565b5b6122da8882890161212f565b9150509295509295909350565b600067ffffffffffffffff82111561230257612301611d56565b5b602082029050602081019050919050565b6000612326612321846122e7565b611db6565b9050808382526020820190506020840283018581111561234957612348612020565b5b835b81811015612372578061235e8882611bcb565b84526020840193505060208101905061234b565b5050509392505050565b600082601f83011261239157612390611d3b565b5b81356123a1848260208601612313565b91505092915050565b600080604083850312156123c1576123c0611b78565b5b600083013567ffffffffffffffff8111156123df576123de611b7d565b5b6123eb8582860161237c565b925050602083013567ffffffffffffffff81111561240c5761240b611b7d565b5b6124188582860161208e565b9150509250929050565b600081519050919050565b600082825260208201905092915050565b6000819050602082019050919050565b61245781611be0565b82525050565b6000612469838361244e565b60208301905092915050565b6000602082019050919050565b600061248d82612422565b612497818561242d565b93506124a28361243e565b8060005b838110156124d35781516124ba888261245d565b97506124c583612475565b9250506001810190506124a6565b5085935050505092915050565b600060208201905081810360008301526124fa8184612482565b905092915050565b61250b81611ba2565b82525050565b60006020820190506125266000830184612502565b92915050565b61253581611d05565b811461254057600080fd5b50565b6000813590506125528161252c565b92915050565b6000806040838503121561256f5761256e611b78565b5b600061257d85828601611bcb565b925050602061258e85828601612543565b9150509250929050565b600080600080600060a086880312156125b4576125b3611b78565b5b60006125c288828901611bcb565b95505060206125d388828901611c01565b94505060406125e488828901611c01565b935050606086013567ffffffffffffffff81111561260557612604611b7d565b5b61261188828901611e53565b925050608086013567ffffffffffffffff81111561263257612631611b7d565b5b61263e8882890161212f565b9150509295509295909350565b6000806040838503121561266257612661611b78565b5b600061267085828601611bcb565b925050602061268185828601611bcb565b9150509250929050565b600080600080600060a086880312156126a7576126a6611b78565b5b60006126b588828901611bcb565b95505060206126c688828901611bcb565b94505060406126d788828901611c01565b93505060606126e888828901611c01565b925050608086013567ffffffffffffffff81111561270957612708611b7d565b5b6127158882890161212f565b9150509295509295909350565b60006020828403121561273857612737611b78565b5b600061274684828501611bcb565b91505092915050565b7f4e487b7100000000000000000000000000000000000000000000000000000000600052602260045260246000fd5b6000600282049050600182168061279657607f821691505b6020821081036127a9576127a861274f565b5b50919050565b60008190508160005260206000209050919050565b60006020601f8301049050919050565b600082821b905092915050565b6000600883026128117fffffffffffffffffffffffffffffffffffffffffffffffffffffffffffffffff826127d4565b61281b86836127d4565b95508019841693508086168417925050509392505050565b6000819050919050565b600061285861285361284e84611be0565b612833565b611be0565b9050919050565b6000819050919050565b6128728361283d565b61288661287e8261285f565b8484546127e1565b825550505050565b600090565b61289b61288e565b6128a6818484612869565b505050565b5b818110156128ca576128bf600082612893565b6001810190506128ac565b5050565b601f82111561290f576128e0816127af565b6128e9846127c4565b810160208510156128f8578190505b61290c612904856127c4565b8301826128ab565b50505b505050565b600082821c905092915050565b600061293260001984600802612914565b1980831691505092915050565b600061294b8383612921565b9150826002028217905092915050565b61296482611ef7565b67ffffffffffffffff81111561297d5761297c611d56565b5b612987825461277e565b6129928282856128ce565b600060209050601f8311600181146129c557600084156129b3578287015190505b6129bd858261293f565b865550612a25565b601f1984166129d3866127af565b60005b828110156129fb578489015182556001820191506020850194506020810190506129d6565b86831015612a185784890151612a14601f891682612921565b8355505b6001600288020188555050505b505050505050565b6000604082019050612a426000830185612502565b612a4f6020830184612502565b9392505050565b6000604082019050612a6b6000830185611c56565b612a786020830184611c56565b9392505050565b7f4e487b7100000000000000000000000000000000000000000000000000000000600052603260045260246000fd5b7f4e487b7100000000000000000000000000000000000000000000000000000000600052601160045260246000fd5b6000612ae882611be0565b91507fffffffffffffffffffffffffffffffffffffffffffffffffffffffffffffffff8203612b1a57612b19612aae565b5b600182019050919050565b600081519050919050565b600082825260208201905092915050565b6000612b4c82612b25565b612b568185612b30565b9350612b66818560208601611f13565b612b6f81611d45565b840191505092915050565b600060a082019050612b8f6000830188612502565b612b9c6020830187612502565b612ba96040830186611c56565b612bb66060830185611c56565b8181036080830152612bc88184612b41565b90509695505050505050565b600081519050612be381611cac565b92915050565b600060208284031215612bff57612bfe611b78565b5b6000612c0d84828501612bd4565b91505092915050565b600060a082019050612c2b6000830188612502565b612c386020830187612502565b8181036040830152612c4a8186612482565b90508181036060830152612c5e8185612482565b90508181036080830152612c728184612b41565b90509695505050505050565b6000612c8982611be0565b9150612c9483611be0565b9250828201905080821115612cac57612cab612aae565b5b92915050565b6000608082019050612cc76000830187612502565b612cd46020830186611c56565b612ce16040830185611c56565b612cee6060830184611c56565b95945050505050565b60006040820190508181036000830152612d118185612482565b90508181036020830152612d258184612482565b9050939250505056fea26469706673582212200f6ba623a798f85419498d5efc69f91da0894332a2fb421d7ce83a8539f3623764736f6c63430008140033",
  "linkReferences": {},
  "deployedLinkReferences": {}
}