{
  "_format": "hh-sol-artifact-1",
  "contractName": "BondToken",
  "sourceName": "contracts/BondToken.sol",
  "abi": [
    {
      "inputs": [],
      "stateMutability": "nonpayable",
      "type": "constructor"
    },
    {
      "inputs": [
        {
          "internalType": "address",
          "name": "sender",
          "type": "address"
        },
        {
          "internalType": "uint256",
          "name": "balance",
          "type": "uint256"
        },
        {
          "internalType": "uint256",
          "name": "needed",
          "type": "uint256"
        },
        {
          "internalType": "uint256",
          "name": "tokenId",
          "type": "uint256"
        }
      ],
      "name": "ERC1155InsufficientBalance",
      "type": "error"
    },
    {
      "inputs": [
        {
          "internalType": "address",
          "name": "approver",
          "type": "address"
        }
      ],
      "name": "ERC1155InvalidApprover",
      "type": "error"
    },
    {
      "inputs": [
        {
          "internalType": "uint256",
          "name": "idsLength",
          "type": "uint256"
        },
        {
          "internalType": "uint256",
          "name": "valuesLength",
          "type": "uint256"
        }
      ],
      "name": "ERC1155InvalidArrayLength",
      "type": "error"
    },
    {
      "inputs": [
        {
          "internalType": "address",
          "name": "operator",
          "type": "address"
        }
      ],
      "name": "ERC1155InvalidOperator",
      "type": "error"
    },
    {
      "inputs": [
        {
          "internalType": "address",
          "name": "receiver",
          "type": "address"
        }
      ],
      "name": "ERC1155InvalidReceiver",
      "type": "error"
    },
    {
      "inputs": [
        {
          "internalType": "address",
          "name": "sender",
          "type": "address"
        }
      ],
      "name": "ERC1155InvalidSender",
      "type": "error"
    },
    {
      "inputs": [
        {
          "internalType": "address",
          "name": "operator",
          "type": "address"
        },
        {
          "internalType": "address",
          "name": "owner",
          "type": "address"
        }
      ],
      "name": "ERC1155MissingApprovalForAll",
      "type": "error"
    },
    {
      "inputs": [
        {
          "internalType": "address",
          "name": "owner",
          "type": "address"
        }
      ],
      "name": "OwnableInvalidOwner",
      "type": "error"
    },
    {
      "inputs": [
        {
          "internalType": "address",
          "name": "account",
          "type": "address"
        }
      ],
      "name": "OwnableUnauthorizedAccount",
      "type": "error"
    },
    {
      "anonymous": false,
      "inputs": [
        {
          "indexed": true,
          "internalType": "address",
          "name": "account",
          "type": "address"
        },
        {
          "indexed": true,
          "internalType": "address",
          "name": "operator",
          "type": "address"
        },
        {
          "indexed": false,
          "internalType": "bool",
          "name": "approved",
          "type": "bool"
        }
      ],
      "name": "ApprovalForAll",
      "type": "event"
    },
    {
      "anonymous": false,
      "inputs": [
        {
          "indexed": true,
          "internalType": "address",
          "name": "previousOwner",
          "type": "address"
        },
        {
          "indexed": true,
          "internalType": "address",
          "name": "newOwner",
          "type": "address"
        }
      ],
      "name": "OwnershipTransferred",
      "type": "event"
    },
    {
      "anonymous": false,
      "inputs": [
        {
          "indexed": true,
          "internalType": "address",
          "name": "operator",
          "type": "address"
        },
        {
          "indexed": true,
          "internalType": "address",
          "name": "from",
          "type": "address"
        },
        {
          "indexed": true,
          "internalType": "address",
          "name": "to",
          "type": "address"
        },
        {
          "indexed": false,
          "internalType": "uint256[]",
          "name": "ids",
          "type": "uint256[]"
        },
        {
          "indexed": false,
          "internalType": "uint256[]",
          "name": "values",
          "type": "uint256[]"
        }
      ],
      "name": "TransferBatch",
      "type": "event"
    },
    {
      "anonymous": false,
      "inputs": [
        {
          "indexed": true,
          "internalType": "address",
          "name": "operator",
          "type": "address"
        },
        {
          "indexed": true,
          "internalType": "address",
          "name": "from",
          "type": "address"
        },
        {
          "indexed": true,
          "internalType": "address",
          "name": "to",
          "type": "address"
        },
        {
          "indexed": false,
          "internalType": "uint256",
          "name": "id",
          "type": "uint256"
        },
        {
          "indexed": false,
          "internalType": "uint256",
          "name": "value",
          "type": "uint256"
        }
      ],
      "name": "TransferSingle",
      "type": "event"
    },
    {
      "anonymous": false,
      "inputs": [
        {
          "indexed": false,
          "internalType": "string",
          "name": "value",
          "type": "string"
        },
        {
          "indexed": true,
          "internalType": "uint256",
          "name": "id",
          "type": "uint256"
        }
      ],
      "name": "URI",
      "type": "event"
    },
    {
      "inputs": [
        {
          "internalType": "address",
          "name": "account",
          "type": "address"
        },
        {
          "internalType": "uint256",
          "name": "id",
          "type": "uint256"
        }
      ],
      "name": "balanceOf",
      "outputs": [
        {
          "internalType": "uint256",
          "name": "",
          "type": "uint256"
        }
      ],
      "stateMutability": "view",
      "type": "function"
    },
    {
      "inputs": [
        {
          "internalType": "address[]",
          "name": "accounts",
          "type": "address[]"
        },
        {
          "internalType": "uint256[]",
          "name": "ids",
          "type": "uint256[]"
        }
      ],
      "name": "balanceOfBatch",
      "outputs": [
        {
          "internalType": "uint256[]",
          "name": "",
          "type": "uint256[]"
        }
      ],
      "stateMutability": "view",
      "type": "function"
    },
    {
      "inputs": [
        {
          "internalType": "uint256",
          "name": "id",
          "type": "uint256"
        }
      ],
      "name": "exists",
      "outputs": [
        {
          "internalType": "bool",
          "name": "",
          "type": "bool"
        }
      ],
      "stateMutability": "view",
      "type": "function"
    },
    {
      "inputs": [
        {
          "internalType": "address",
          "name": "account",
          "type": "address"
        },
        {
          "internalType": "address",
          "name": "operator",
          "type": "address"
        }
      ],
      "name": "isApprovedForAll",
      "outputs": [
        {
          "internalType": "bool",
          "name": "",
          "type": "bool"
        }
      ],
      "stateMutability": "view",
      "type": "function"
    },
    {
      "inputs": [
        {
          "internalType": "address",
          "name": "account",
          "type": "address"
        },
        {
          "internalType": "uint256",
          "name": "id",
          "type": "uint256"
        },
        {
          "internalType": "uint256",
          "name": "amount",
          "type": "uint256"
        },
        {
          "internalType": "bytes",
          "name": "data",
          "type": "bytes"
        }
      ],
      "name": "mint",
      "outputs": [],
      "stateMutability": "nonpayable",
      "type": "function"
    },
    {
      "inputs": [
        {
          "internalType": "address",
          "name": "to",
          "type": "address"
        },
        {
          "internalType": "uint256[]",
          "name": "ids",
          "type": "uint256[]"
        },
        {
          "internalType": "uint256[]",
          "name": "amounts",
          "type": "uint256[]"
        },
        {
          "internalType": "bytes",
          "name": "data",
          "type": "bytes"
        }
      ],
      "name": "mintBatch",
      "outputs": [],
      "stateMutability": "nonpayable",
      "type": "function"
    },
    {
      "inputs": [],
      "name": "owner",
      "outputs": [
        {
          "internalType": "address",
          "name": "",
          "type": "address"
        }
      ],
      "stateMutability": "view",
      "type": "function"
    },
    {
      "inputs": [],
      "name": "renounceOwnership",
      "outputs": [],
      "stateMutability": "nonpayable",
      "type": "function"
    },
    {
      "inputs": [
        {
          "internalType": "address",
          "name": "from",
          "type": "address"
        },
        {
          "internalType": "address",
          "name": "to",
          "type": "address"
        },
        {
          "internalType": "uint256[]",
          "name": "ids",
          "type": "uint256[]"
        },
        {
          "internalType": "uint256[]",
          "name": "values",
          "type": "uint256[]"
        },
        {
          "internalType": "bytes",
          "name": "data",
          "type": "bytes"
        }
      ],
      "name": "safeBatchTransferFrom",
      "outputs": [],
      "stateMutability": "nonpayable",
      "type": "function"
    },
    {
      "inputs": [
        {
          "internalType": "address",
          "name": "from",
          "type": "address"
        },
        {
          "internalType": "address",
          "name": "to",
          "type": "address"
        },
        {
          "internalType": "uint256",
          "name": "id",
          "type": "uint256"
        },
        {
          "internalType": "uint256",
          "name": "value",
          "type": "uint256"
        },
        {
          "internalType": "bytes",
          "name": "data",
          "type": "bytes"
        }
      ],
      "name": "safeTransferFrom",
      "outputs": [],
      "stateMutability": "nonpayable",
      "type": "function"
    },
    {
      "inputs": [
        {
          "internalType": "address",
          "name": "operator",
          "type": "address"
        },
        {
          "internalType": "bool",
          "name": "approved",
          "type": "bool"
        }
      ],
      "name": "setApprovalForAll",
      "outputs": [],
      "stateMutability": "nonpayable",
      "type": "function"
    },
    {
      "inputs": [
        {
          "internalType": "string",
          "name": "newuri",
          "type": "string"
        }
      ],
      "name": "setURI",
      "outputs": [],
      "stateMutability": "nonpayable",
      "type": "function"
    },
    {
      "inputs": [
        {
          "internalType": "bytes4",
          "name": "interfaceId",
          "type": "bytes4"
        }
      ],
      "name": "supportsInterface",
      "outputs": [
        {
          "internalType": "bool",
          "name": "",
          "type": "bool"
        }
      ],
      "stateMutability": "view",
      "type": "function"
    },
    {
      "inputs": [],
      "name": "totalSupply",
      "outputs": [
        {
          "internalType": "uint256",
          "name": "",
          "type": "uint256"
        }
      ],
      "stateMutability": "view",
      "type": "function"
    },
    {
      "inputs": [
        {
          "internalType": "uint256",
          "name": "id",
          "type": "uint256"
        }
      ],
      "name": "totalSupply",
      "outputs": [
        {
          "internalType": "uint256",
          "name": "",
          "type": "uint256"
        }
      ],
      "stateMutability": "view",
      "type": "function"
    },
    {
      "inputs": [
        {
          "internalType": "address",
          "name": "newOwner",
          "type": "address"
        }
      ],
      "name": "transferOwnership",
      "outputs": [],
      "stateMutability": "nonpayable",
      "type": "function"
    },
    {
      "inputs": [
        {
          "internalType": "uint256",
          "name": "",
          "type": "uint256"
        }
      ],
      "name": "uri",
      "outputs": [
        {
          "internalType": "string",
          "name": "",
          "type": "string"
        }
      ],
      "stateMutability": "view",
      "type": "function"
    }
  ],
  "bytecode": "0x60806040523480156200001157600080fd5b5033604051806020016040528060008152506200003481620000c260201b60201c565b50600073ffffffffffffffffffffffffffffffffffffffff168173ffffffffffffffffffffffffffffffffffffffff1603620000aa5760006040517f1e4fbdf7000000000000000000000000000000000000000000000000000000008152600401620000a19190620001e2565b60405180910390fd5b620000bb81620000d760201b60201c565b5062000560565b8060029081620000d3919062000479565b5050565b6000600360009054906101000a900473ffffffffffffffffffffffffffffffffffffffff16905081600360006101000a81548173ffffffffffffffffffffffffffffffffffffffff021916908373ffffffffffffffffffffffffffffffffffffffff1602179055508173ffffffffffffffffffffffffffffffffffffffff168173ffffffffffffffffffffffffffffffffffffffff167f8be0079c531659141344cd1fd0a4f28419497f9722a3daafe3b4186f6b6457e060405160405180910390a35050565b600073ffffffffffffffffffffffffffffffffffffffff82169050919050565b6000620001ca826200019d565b9050919050565b620001dc81620001bd565b82525050565b6000602082019050620001f96000830184620001d1565b92915050565b600081519050919050565b7f4e487b7100000000000000000000000000000000000000000000000000000000600052604160045260246000fd5b7f4e487b7100000000000000000000000000000000000000000000000000000000600052602260045260246000fd5b600060028204905060018216806200028157607f821691505b60208210810362000297576200029662000239565b5b50919050565b60008190508160005260206000209050919050565b60006020601f8301049050919050565b600082821b905092915050565b600060088302620003017fffffffffffffffffffffffffffffffffffffffffffffffffffffffffffffffff82620002c2565b6200030d8683620002c2565b95508019841693508086168417925050509392505050565b6000819050919050565b6000819050919050565b60006200035a620003546200034e8462000325565b6200032f565b62000325565b9050919050565b6000819050919050565b620003768362000339565b6200038e620003858262000361565b848454620002cf565b825550505050565b600090565b620003a562000396565b620003b28184846200036b565b505050565b5b81811015620003da57620003ce6000826200039b565b600181019050620003b8565b5050565b601f8211156200042957620003f3816200029d565b620003fe84620002b2565b810160208510156200040e578190505b620004266200041d85620002b2565b830182620003b7565b50505b505050565b600082821c905092915050565b60006200044e600019846008026200042e565b1980831691505092915050565b60006200046983836200043b565b9150826002028217905092915050565b6200048482620001ff565b67ffffffffffffffff811115620004a0576200049f6200020a565b5b620004ac825462000268565b620004b9828285620003de565b600060209050601f831160018114620004f15760008415620004dc578287015190505b620004e885826200045b565b86555062000558565b601f19841662000501866200029d565b60005b828110156200052b5784890151825560018201915060208501945060208101905062000504565b868310156200054b578489015162000547601f8916826200043b565b8355505b6001600288020188555050505b505050505050565b612b2080620005706000396000f3fe608060405234801561001057600080fd5b506004361061010a5760003560e01c80634f558e79116100a2578063a22cb46511610071578063a22cb465146102b5578063bd85b039146102d1578063e985e9c514610301578063f242432a14610331578063f2fde38b1461034d5761010a565b80634f558e7914610241578063715018a614610271578063731133e91461027b5780638da5cb5b146102975761010a565b806318160ddd116100de57806318160ddd146101bb5780631f7fdffa146101d95780632eb2c2d6146101f55780634e1273f4146102115761010a565b8062fdd58e1461010f57806301ffc9a71461013f57806302fe53051461016f5780630e89341c1461018b575b600080fd5b61012960048036038101906101249190611a5e565b610369565b6040516101369190611aad565b60405180910390f35b61015960048036038101906101549190611b20565b6103c3565b6040516101669190611b68565b60405180910390f35b61018960048036038101906101849190611cc9565b6104a5565b005b6101a560048036038101906101a09190611d12565b6104b9565b6040516101b29190611dbe565b60405180910390f35b6101c361054d565b6040516101d09190611aad565b60405180910390f35b6101f360048036038101906101ee9190611f49565b610557565b005b61020f600480360381019061020a9190612004565b610571565b005b61022b60048036038101906102269190612196565b610619565b60405161023891906122cc565b60405180910390f35b61025b60048036038101906102569190611d12565b610728565b6040516102689190611b68565b60405180910390f35b61027961073c565b005b610295600480360381019061029091906122ee565b610750565b005b61029f61076a565b6040516102ac9190612380565b60405180910390f35b6102cf60048036038101906102ca91906123c7565b610794565b005b6102eb60048036038101906102e69190611d12565b6107aa565b6040516102f89190611aad565b60405180910390f35b61031b60048036038101906103169190612407565b6107c7565b6040516103289190611b68565b60405180910390f35b61034b60048036038101906103469190612447565b61085b565b005b610367600480360381019061036291906124de565b610903565b005b600080600083815260200190815260200160002060008473ffffffffffffffffffffffffffffffffffffffff1673ffffffffffffffffffffffffffffffffffffffff16815260200190815260200160002054905092915050565b60007fd9b67a26000000000000000000000000000000000000000000000000000000007bffffffffffffffffffffffffffffffffffffffffffffffffffffffff1916827bffffffffffffffffffffffffffffffffffffffffffffffffffffffff1916148061048e57507f0e89341c000000000000000000000000000000000000000000000000000000007bffffffffffffffffffffffffffffffffffffffffffffffffffffffff1916827bffffffffffffffffffffffffffffffffffffffffffffffffffffffff1916145b8061049e575061049d82610989565b5b9050919050565b6104ad6109f3565b6104b681610a7a565b50565b6060600280546104c89061253a565b80601f01602080910402602001604051908101604052809291908181526020018280546104f49061253a565b80156105415780601f1061051657610100808354040283529160200191610541565b820191906000526020600020905b81548152906001019060200180831161052457829003601f168201915b50505050509050919050565b6000600554905090565b61055f6109f3565b61056b84848484610a8d565b50505050565b600061057b610b13565b90508073ffffffffffffffffffffffffffffffffffffffff168673ffffffffffffffffffffffffffffffffffffffff16141580156105c057506105be86826107c7565b155b156106045780866040517fe237d9220000000000000000000000000000000000000000000000000000000081526004016105fb92919061256b565b60405180910390fd5b6106118686868686610b1b565b505050505050565b6060815183511461066557815183516040517f5b05999100000000000000000000000000000000000000000000000000000000815260040161065c929190612594565b60405180910390fd5b6000835167ffffffffffffffff81111561068257610681611b9e565b5b6040519080825280602002602001820160405280156106b05781602001602082028036833780820191505090505b50905060005b845181101561071d576106ed6106d58287610c1390919063ffffffff16565b6106e88387610c2790919063ffffffff16565b610369565b828281518110610700576106ff6125bd565b5b602002602001018181525050806107169061261b565b90506106b6565b508091505092915050565b600080610734836107aa565b119050919050565b6107446109f3565b61074e6000610c3b565b565b6107586109f3565b61076484848484610d01565b50505050565b6000600360009054906101000a900473ffffffffffffffffffffffffffffffffffffffff16905090565b6107a661079f610b13565b8383610d9a565b5050565b600060046000838152602001908152602001600020549050919050565b6000600160008473ffffffffffffffffffffffffffffffffffffffff1673ffffffffffffffffffffffffffffffffffffffff16815260200190815260200160002060008373ffffffffffffffffffffffffffffffffffffffff1673ffffffffffffffffffffffffffffffffffffffff16815260200190815260200160002060009054906101000a900460ff16905092915050565b6000610865610b13565b90508073ffffffffffffffffffffffffffffffffffffffff168673ffffffffffffffffffffffffffffffffffffffff16141580156108aa57506108a886826107c7565b155b156108ee5780866040517fe237d9220000000000000000000000000000000000000000000000000000000081526004016108e592919061256b565b60405180910390fd5b6108fb8686868686610f0a565b505050505050565b61090b6109f3565b600073ffffffffffffffffffffffffffffffffffffffff168173ffffffffffffffffffffffffffffffffffffffff160361097d5760006040517f1e4fbdf70000000000000000000000000000000000000000000000000000000081526004016109749190612380565b60405180910390fd5b61098681610c3b565b50565b60007f01ffc9a7000000000000000000000000000000000000000000000000000000007bffffffffffffffffffffffffffffffffffffffffffffffffffffffff1916827bffffffffffffffffffffffffffffffffffffffffffffffffffffffff1916149050919050565b6109fb610b13565b73ffffffffffffffffffffffffffffffffffffffff16610a1961076a565b73ffffffffffffffffffffffffffffffffffffffff1614610a7857610a3c610b13565b6040517f118cdaa7000000000000000000000000000000000000000000000000000000008152600401610a6f9190612380565b60405180910390fd5b565b8060029081610a89919061280f565b5050565b600073ffffffffffffffffffffffffffffffffffffffff168473ffffffffffffffffffffffffffffffffffffffff1603610aff5760006040517f57f447ce000000000000000000000000000000000000000000000000000000008152600401610af69190612380565b60405180910390fd5b610b0d600085858585611015565b50505050565b600033905090565b600073ffffffffffffffffffffffffffffffffffffffff168473ffffffffffffffffffffffffffffffffffffffff1603610b8d5760006040517f57f447ce000000000000000000000000000000000000000000000000000000008152600401610b849190612380565b60405180910390fd5b600073ffffffffffffffffffffffffffffffffffffffff168573ffffffffffffffffffffffffffffffffffffffff1603610bff5760006040517f01a83514000000000000000000000000000000000000000000000000000000008152600401610bf69190612380565b60405180910390fd5b610c0c8585858585611015565b5050505050565b600060208202602084010151905092915050565b600060208202602084010151905092915050565b6000600360009054906101000a900473ffffffffffffffffffffffffffffffffffffffff16905081600360006101000a81548173ffffffffffffffffffffffffffffffffffffffff021916908373ffffffffffffffffffffffffffffffffffffffff1602179055508173ffffffffffffffffffffffffffffffffffffffff168173ffffffffffffffffffffffffffffffffffffffff167f8be0079c531659141344cd1fd0a4f28419497f9722a3daafe3b4186f6b6457e060405160405180910390a35050565b600073ffffffffffffffffffffffffffffffffffffffff168473ffffffffffffffffffffffffffffffffffffffff1603610d735760006040517f57f447ce000000000000000000000000000000000000000000000000000000008152600401610d6a9190612380565b60405180910390fd5b600080610d8085856110c7565b91509150610d92600087848487611015565b505050505050565b600073ffffffffffffffffffffffffffffffffffffffff168273ffffffffffffffffffffffffffffffffffffffff1603610e0c5760006040517fced3e100000000000000000000000000000000000000000000000000000000008152600401610e039190612380565b60405180910390fd5b80600160008573ffffffffffffffffffffffffffffffffffffffff1673ffffffffffffffffffffffffffffffffffffffff16815260200190815260200160002060008473ffffffffffffffffffffffffffffffffffffffff1673ffffffffffffffffffffffffffffffffffffffff16815260200190815260200160002060006101000a81548160ff0219169083151502179055508173ffffffffffffffffffffffffffffffffffffffff168373ffffffffffffffffffffffffffffffffffffffff167f17307eab39ab6107e8899845ad3d59bd9653f200f220920489ca2b5937696c3183604051610efd9190611b68565b60405180910390a3505050565b600073ffffffffffffffffffffffffffffffffffffffff168473ffffffffffffffffffffffffffffffffffffffff1603610f7c5760006040517f57f447ce000000000000000000000000000000000000000000000000000000008152600401610f739190612380565b60405180910390fd5b600073ffffffffffffffffffffffffffffffffffffffff168573ffffffffffffffffffffffffffffffffffffffff1603610fee5760006040517f01a83514000000000000000000000000000000000000000000000000000000008152600401610fe59190612380565b60405180910390fd5b600080610ffb85856110c7565b9150915061100c8787848487611015565b50505050505050565b611021858585856110f7565b600073ffffffffffffffffffffffffffffffffffffffff168473ffffffffffffffffffffffffffffffffffffffff16146110c057600061105f610b13565b905060018451036110af576000611080600086610c2790919063ffffffff16565b90506000611098600086610c2790919063ffffffff16565b90506110a8838989858589611109565b50506110be565b6110bd8187878787876112bd565b5b505b5050505050565b60608060405191506001825283602083015260408201905060018152826020820152604081016040529250929050565b61110384848484611471565b50505050565b60008473ffffffffffffffffffffffffffffffffffffffff163b11156112b5578373ffffffffffffffffffffffffffffffffffffffff1663f23a6e6187878686866040518663ffffffff1660e01b815260040161116a959493929190612936565b6020604051808303816000875af19250505080156111a657506040513d601f19601f820116820180604052508101906111a391906129a5565b60015b61122a573d80600081146111d6576040519150601f19603f3d011682016040523d82523d6000602084013e6111db565b606091505b50600081510361122257846040517f57f447ce0000000000000000000000000000000000000000000000000000000081526004016112199190612380565b60405180910390fd5b805160208201fd5b63f23a6e6160e01b7bffffffffffffffffffffffffffffffffffffffffffffffffffffffff1916817bffffffffffffffffffffffffffffffffffffffffffffffffffffffff1916146112b357846040517f57f447ce0000000000000000000000000000000000000000000000000000000081526004016112aa9190612380565b60405180910390fd5b505b505050505050565b60008473ffffffffffffffffffffffffffffffffffffffff163b1115611469578373ffffffffffffffffffffffffffffffffffffffff1663bc197c8187878686866040518663ffffffff1660e01b815260040161131e9594939291906129d2565b6020604051808303816000875af192505050801561135a57506040513d601f19601f8201168201806040525081019061135791906129a5565b60015b6113de573d806000811461138a576040519150601f19603f3d011682016040523d82523d6000602084013e61138f565b606091505b5060008151036113d657846040517f57f447ce0000000000000000000000000000000000000000000000000000000081526004016113cd9190612380565b60405180910390fd5b805160208201fd5b63bc197c8160e01b7bffffffffffffffffffffffffffffffffffffffffffffffffffffffff1916817bffffffffffffffffffffffffffffffffffffffffffffffffffffffff19161461146757846040517f57f447ce00000000000000000000000000000000000000000000000000000000815260040161145e9190612380565b60405180910390fd5b505b505050505050565b61147d84848484611608565b600073ffffffffffffffffffffffffffffffffffffffff168473ffffffffffffffffffffffffffffffffffffffff160361154d576000805b83518110156115315760006114d38285610c2790919063ffffffff16565b905080600460006114ed8589610c2790919063ffffffff16565b8152602001908152602001600020600082825461150a9190612a3a565b92505081905550808361151d9190612a3a565b9250508061152a9061261b565b90506114b5565b5080600560008282546115449190612a3a565b92505081905550505b600073ffffffffffffffffffffffffffffffffffffffff168373ffffffffffffffffffffffffffffffffffffffff1603611602576000805b83518110156115ef5760006115a38285610c2790919063ffffffff16565b905080600460006115bd8589610c2790919063ffffffff16565b815260200190815260200160002060008282540392505081905550808301925050806115e89061261b565b9050611585565b5080600560008282540392505081905550505b50505050565b805182511461165257815181516040517f5b059991000000000000000000000000000000000000000000000000000000008152600401611649929190612594565b60405180910390fd5b600061165c610b13565b905060005b835181101561187157600061167f8286610c2790919063ffffffff16565b905060006116968386610c2790919063ffffffff16565b9050600073ffffffffffffffffffffffffffffffffffffffff168873ffffffffffffffffffffffffffffffffffffffff16146117c357600080600084815260200190815260200160002060008a73ffffffffffffffffffffffffffffffffffffffff1673ffffffffffffffffffffffffffffffffffffffff1681526020019081526020016000205490508181101561176b57888183856040517f03dee4c50000000000000000000000000000000000000000000000000000000081526004016117629493929190612a6e565b60405180910390fd5b81810360008085815260200190815260200160002060008b73ffffffffffffffffffffffffffffffffffffffff1673ffffffffffffffffffffffffffffffffffffffff16815260200190815260200160002081905550505b600073ffffffffffffffffffffffffffffffffffffffff168773ffffffffffffffffffffffffffffffffffffffff161461185e578060008084815260200190815260200160002060008973ffffffffffffffffffffffffffffffffffffffff1673ffffffffffffffffffffffffffffffffffffffff16815260200190815260200160002060008282546118569190612a3a565b925050819055505b50508061186a9061261b565b9050611661565b506001835103611930576000611891600085610c2790919063ffffffff16565b905060006118a9600085610c2790919063ffffffff16565b90508573ffffffffffffffffffffffffffffffffffffffff168773ffffffffffffffffffffffffffffffffffffffff168473ffffffffffffffffffffffffffffffffffffffff167fc3d58168c5ae7397731d063d5bbf3d657854427343f4c083240f7aacaa2d0f628585604051611921929190612594565b60405180910390a450506119af565b8373ffffffffffffffffffffffffffffffffffffffff168573ffffffffffffffffffffffffffffffffffffffff168273ffffffffffffffffffffffffffffffffffffffff167f4a39dc06d4c0dbc64b70af90fd698a233a518aa5d07e595d983b8c0526c8f7fb86866040516119a6929190612ab3565b60405180910390a45b5050505050565b6000604051905090565b600080fd5b600080fd5b600073ffffffffffffffffffffffffffffffffffffffff82169050919050565b60006119f5826119ca565b9050919050565b611a05816119ea565b8114611a1057600080fd5b50565b600081359050611a22816119fc565b92915050565b6000819050919050565b611a3b81611a28565b8114611a4657600080fd5b50565b600081359050611a5881611a32565b92915050565b60008060408385031215611a7557611a746119c0565b5b6000611a8385828601611a13565b9250506020611a9485828601611a49565b9150509250929050565b611aa781611a28565b82525050565b6000602082019050611ac26000830184611a9e565b92915050565b60007fffffffff0000000000000000000000000000000000000000000000000000000082169050919050565b611afd81611ac8565b8114611b0857600080fd5b50565b600081359050611b1a81611af4565b92915050565b600060208284031215611b3657611b356119c0565b5b6000611b4484828501611b0b565b91505092915050565b60008115159050919050565b611b6281611b4d565b82525050565b6000602082019050611b7d6000830184611b59565b92915050565b600080fd5b600080fd5b6000601f19601f8301169050919050565b7f4e487b7100000000000000000000000000000000000000000000000000000000600052604160045260246000fd5b611bd682611b8d565b810181811067ffffffffffffffff82111715611bf557611bf4611b9e565b5b80604052505050565b6000611c086119b6565b9050611c148282611bcd565b919050565b600067ffffffffffffffff821115611c3457611c33611b9e565b5b611c3d82611b8d565b9050602081019050919050565b82818337600083830152505050565b6000611c6c611c6784611c19565b611bfe565b905082815260208101848484011115611c8857611c87611b88565b5b611c93848285611c4a565b509392505050565b600082601f830112611cb057611caf611b83565b5b8135611cc0848260208601611c59565b91505092915050565b600060208284031215611cdf57611cde6119c0565b5b600082013567ffffffffffffffff811115611cfd57611cfc6119c5565b5b611d0984828501611c9b565b91505092915050565b600060208284031215611d2857611d276119c0565b5b6000611d3684828501611a49565b91505092915050565b600081519050919050565b600082825260208201905092915050565b60005b83811015611d79578082015181840152602081019050611d5e565b60008484015250505050565b6000611d9082611d3f565b611d9a8185611d4a565b9350611daa818560208601611d5b565b611db381611b8d565b840191505092915050565b60006020820190508181036000830152611dd88184611d85565b905092915050565b600067ffffffffffffffff821115611dfb57611dfa611b9e565b5b602082029050602081019050919050565b600080fd5b6000611e24611e1f84611de0565b611bfe565b90508083825260208201905060208402830185811115611e4757611e46611e0c565b5b835b81811015611e705780611e5c8882611a49565b845260208401935050602081019050611e49565b5050509392505050565b600082601f830112611e8f57611e8e611b83565b5b8135611e9f848260208601611e11565b91505092915050565b600067ffffffffffffffff821115611ec357611ec2611b9e565b5b611ecc82611b8d565b9050602081019050919050565b6000611eec611ee784611ea8565b611bfe565b905082815260208101848484011115611f0857611f07611b88565b5b611f13848285611c4a565b509392505050565b600082601f830112611f3057611f2f611b83565b5b8135611f40848260208601611ed9565b91505092915050565b60008060008060808587031215611f6357611f626119c0565b5b6000611f7187828801611a13565b945050602085013567ffffffffffffffff811115611f9257611f916119c5565b5b611f9e87828801611e7a565b935050604085013567ffffffffffffffff811115611fbf57611fbe6119c5565b5b611fcb87828801611e7a565b925050606085013567ffffffffffffffff811115611fec57611feb6119c5565b5b611ff887828801611f1b565b91505092959194509250565b600080600080600060a086880312156120205761201f6119c0565b5b600061202e88828901611a13565b955050602061203f88828901611a13565b945050604086013567ffffffffffffffff8111156120605761205f6119c5565b5b61206c88828901611e7a565b935050606086013567ffffffffffffffff81111561208d5761208c6119c5565b5b61209988828901611e7a565b925050608086013567ffffffffffffffff8111156120ba576120b96119c5565b5b6120c688828901611f1b565b9150509295509295909350565b600067ffffffffffffffff8211156120ee576120ed611b9e565b5b602082029050602081019050919050565b600061211261210d846120d3565b611bfe565b9050808382526020820190506020840283018581111561213557612134611e0c565b5b835b8181101561215e578061214a8882611a13565b845260208401935050602081019050612137565b5050509392505050565b600082601f83011261217d5761217c611b83565b5b813561218d8482602086016120ff565b91505092915050565b600080604083850312156121ad576121ac6119c0565b5b600083013567ffffffffffffffff8111156121cb576121ca6119c5565b5b6121d785828601612168565b925050602083013567ffffffffffffffff8111156121f8576121f76119c5565b5b61220485828601611e7a565b9150509250929050565b600081519050919050565b600082825260208201905092915050565b6000819050602082019050919050565b61224381611a28565b82525050565b6000612255838361223a565b60208301905092915050565b6000602082019050919050565b60006122798261220e565b6122838185612219565b935061228e8361222a565b8060005b838110156122bf5781516122a68882612249565b97506122b183612261565b925050600181019050612292565b5085935050505092915050565b600060208201905081810360008301526122e6818461226e565b905092915050565b60008060008060808587031215612308576123076119c0565b5b600061231687828801611a13565b945050602061232787828801611a49565b935050604061233887828801611a49565b925050606085013567ffffffffffffffff811115612359576123586119c5565b5b61236587828801611f1b565b91505092959194509250565b61237a816119ea565b82525050565b60006020820190506123956000830184612371565b92915050565b6123a481611b4d565b81146123af57600080fd5b50565b6000813590506123c18161239b565b92915050565b600080604083850312156123de576123dd6119c0565b5b60006123ec85828601611a13565b92505060206123fd858286016123b2565b9150509250929050565b6000806040838503121561241e5761241d6119c0565b5b600061242c85828601611a13565b925050602061243d85828601611a13565b9150509250929050565b600080600080600060a08688031215612463576124626119c0565b5b600061247188828901611a13565b955050602061248288828901611a13565b945050604061249388828901611a49565b93505060606124a488828901611a49565b925050608086013567ffffffffffffffff8111156124c5576124c46119c5565b5b6124d188828901611f1b565b9150509295509295909350565b6000602082840312156124f4576124f36119c0565b5b600061250284828501611a13565b91505092915050565b7f4e487b7100000000000000000000000000000000000000000000000000000000600052602260045260246000fd5b6000600282049050600182168061255257607f821691505b6020821081036125655761256461250b565b5b50919050565b60006040820190506125806000830185612371565b61258d6020830184612371565b9392505050565b60006040820190506125a96000830185611a9e565b6125b66020830184611a9e565b9392505050565b7f4e487b7100000000000000000000000000000000000000000000000000000000600052603260045260246000fd5b7f4e487b7100000000000000000000000000000000000000000000000000000000600052601160045260246000fd5b600061262682611a28565b91507fffffffffffffffffffffffffffffffffffffffffffffffffffffffffffffffff8203612658576126576125ec565b5b600182019050919050565b60008190508160005260206000209050919050565b60006020601f8301049050919050565b600082821b905092915050565b6000600883026126c57fffffffffffffffffffffffffffffffffffffffffffffffffffffffffffffffff82612688565b6126cf8683612688565b95508019841693508086168417925050509392505050565b6000819050919050565b600061270c61270761270284611a28565b6126e7565b611a28565b9050919050565b6000819050919050565b612726836126f1565b61273a61273282612713565b848454612695565b825550505050565b600090565b61274f612742565b61275a81848461271d565b505050565b5b8181101561277e57612773600082612747565b600181019050612760565b5050565b601f8211156127c35761279481612663565b61279d84612678565b810160208510156127ac578190505b6127c06127b885612678565b83018261275f565b50505b505050565b600082821c905092915050565b60006127e6600019846008026127c8565b1980831691505092915050565b60006127ff83836127d5565b9150826002028217905092915050565b61281882611d3f565b67ffffffffffffffff81111561283157612830611b9e565b5b61283b825461253a565b612846828285612782565b600060209050601f8311600181146128795760008415612867578287015190505b61287185826127f3565b8655506128d9565b601f19841661288786612663565b60005b828110156128af5784890151825560018201915060208501945060208101905061288a565b868310156128cc57848901516128c8601f8916826127d5565b8355505b6001600288020188555050505b505050505050565b600081519050919050565b600082825260208201905092915050565b6000612908826128e1565b61291281856128ec565b9350612922818560208601611d5b565b61292b81611b8d565b840191505092915050565b600060a08201905061294b6000830188612371565b6129586020830187612371565b6129656040830186611a9e565b6129726060830185611a9e565b818103608083015261298481846128fd565b90509695505050505050565b60008151905061299f81611af4565b92915050565b6000602082840312156129bb576129ba6119c0565b5b60006129c984828501612990565b91505092915050565b600060a0820190506129e76000830188612371565b6129f46020830187612371565b8181036040830152612a06818661226e565b90508181036060830152612a1a818561226e565b90508181036080830152612a2e81846128fd565b90509695505050505050565b6000612a4582611a28565b9150612a5083611a28565b9250828201905080821115612a6857612a676125ec565b5b92915050565b6000608082019050612a836000830187612371565b612a906020830186611a9e565b612a9d6040830185611a9e565b612aaa6060830184611a9e565b95945050505050565b60006040820190508181036000830152612acd818561226e565b90508181036020830152612ae1818461226e565b9050939250505056fea2646970667358221220504a5701045ea9a96485ffaac8e83e08caa7b5edb2926a903c44c50d339057af64736f6c63430008140033",
  "linkReferences": {},
  "deployedLinkReferences": {}
}