{
  "_format": "hh-sol-artifact-1",
  "contractName": "LiquidityPool",
  "sourceName": "contracts/LiquidityPool.sol",
  "abi": [
    {
      "inputs": [
        {
          "internalType": "address",
          "name": "_usdcToken",
          "type": "address"
        },
        {
          "internalType": "address",
          "name": "_bondToken",
          "type": "address"
        }
      ],
      "stateMutability": "nonpayable",
      "type": "constructor"
    },
    {
      "inputs": [],
      "name": "AccessControlBadConfirmation",
      "type": "error"
    },
    {
      "inputs": [
        {
          "internalType": "address",
          "name": "account",
          "type": "address"
        },
        {
          "internalType": "bytes32",
          "name": "neededRole",
          "type": "bytes32"
        }
      ],
      "name": "AccessControlUnauthorizedAccount",
      "type": "error"
    },
    {
      "inputs": [],
      "name": "ReentrancyGuardReentrantCall",
      "type": "error"
    },
    {
      "anonymous": false,
      "inputs": [
        {
          "indexed": true,
          "internalType": "address",
          "name": "investor",
          "type": "address"
        },
        {
          "indexed": true,
          "internalType": "uint256",
          "name": "bondId",
          "type": "uint256"
        },
        {
          "indexed": false,
          "internalType": "uint256",
          "name": "amount",
          "type": "uint256"
        }
      ],
      "name": "BondPurchased",
      "type": "event"
    },
    {
      "anonymous": false,
      "inputs": [
        {
          "indexed": true,
          "internalType": "address",
          "name": "to",
          "type": "address"
        },
        {
          "indexed": false,
          "internalType": "uint256",
          "name": "amount",
          "type": "uint256"
        }
      ],
      "name": "FundsWithdrawn",
      "type": "event"
    },
    {
      "anonymous": false,
      "inputs": [
        {
          "indexed": true,
          "internalType": "bytes32",
          "name": "role",
          "type": "bytes32"
        },
        {
          "indexed": true,
          "internalType": "bytes32",
          "name": "previousAdminRole",
          "type": "bytes32"
        },
        {
          "indexed": true,
          "internalType": "bytes32",
          "name": "newAdminRole",
          "type": "bytes32"
        }
      ],
      "name": "RoleAdminChanged",
      "type": "event"
    },
    {
      "anonymous": false,
      "inputs": [
        {
          "indexed": true,
          "internalType": "bytes32",
          "name": "role",
          "type": "bytes32"
        },
        {
          "indexed": true,
          "internalType": "address",
          "name": "account",
          "type": "address"
        },
        {
          "indexed": true,
          "internalType": "address",
          "name": "sender",
          "type": "address"
        }
      ],
      "name": "RoleGranted",
      "type": "event"
    },
    {
      "anonymous": false,
      "inputs": [
        {
          "indexed": true,
          "internalType": "bytes32",
          "name": "role",
          "type": "bytes32"
        },
        {
          "indexed": true,
          "internalType": "address",
          "name": "account",
          "type": "address"
        },
        {
          "indexed": true,
          "internalType": "address",
          "name": "sender",
          "type": "address"
        }
      ],
      "name": "RoleRevoked",
      "type": "event"
    },
    {
      "inputs": [],
      "name": "ADMIN_ROLE",
      "outputs": [
        {
          "internalType": "bytes32",
          "name": "",
          "type": "bytes32"
        }
      ],
      "stateMutability": "view",
      "type": "function"
    },
    {
      "inputs": [],
      "name": "DEFAULT_ADMIN_ROLE",
      "outputs": [
        {
          "internalType": "bytes32",
          "name": "",
          "type": "bytes32"
        }
      ],
      "stateMutability": "view",
      "type": "function"
    },
    {
      "inputs": [],
      "name": "bondToken",
      "outputs": [
        {
          "internalType": "contract BondToken",
          "name": "",
          "type": "address"
        }
      ],
      "stateMutability": "view",
      "type": "function"
    },
    {
      "inputs": [
        {
          "internalType": "bytes32",
          "name": "role",
          "type": "bytes32"
        }
      ],
      "name": "getRoleAdmin",
      "outputs": [
        {
          "internalType": "bytes32",
          "name": "",
          "type": "bytes32"
        }
      ],
      "stateMutability": "view",
      "type": "function"
    },
    {
      "inputs": [
        {
          "internalType": "bytes32",
          "name": "role",
          "type": "bytes32"
        },
        {
          "internalType": "address",
          "name": "account",
          "type": "address"
        }
      ],
      "name": "grantRole",
      "outputs": [],
      "stateMutability": "nonpayable",
      "type": "function"
    },
    {
      "inputs": [
        {
          "internalType": "bytes32",
          "name": "role",
          "type": "bytes32"
        },
        {
          "internalType": "address",
          "name": "account",
          "type": "address"
        }
      ],
      "name": "hasRole",
      "outputs": [
        {
          "internalType": "bool",
          "name": "",
          "type": "bool"
        }
      ],
      "stateMutability": "view",
      "type": "function"
    },
    {
      "inputs": [
        {
          "internalType": "uint256",
          "name": "bondId",
          "type": "uint256"
        },
        {
          "internalType": "uint256",
          "name": "amount",
          "type": "uint256"
        }
      ],
      "name": "purchaseBond",
      "outputs": [],
      "stateMutability": "nonpayable",
      "type": "function"
    },
    {
      "inputs": [
        {
          "internalType": "bytes32",
          "name": "role",
          "type": "bytes32"
        },
        {
          "internalType": "address",
          "name": "callerConfirmation",
          "type": "address"
        }
      ],
      "name": "renounceRole",
      "outputs": [],
      "stateMutability": "nonpayable",
      "type": "function"
    },
    {
      "inputs": [
        {
          "internalType": "bytes32",
          "name": "role",
          "type": "bytes32"
        },
        {
          "internalType": "address",
          "name": "account",
          "type": "address"
        }
      ],
      "name": "revokeRole",
      "outputs": [],
      "stateMutability": "nonpayable",
      "type": "function"
    },
    {
      "inputs": [
        {
          "internalType": "bytes4",
          "name": "interfaceId",
          "type": "bytes4"
        }
      ],
      "name": "supportsInterface",
      "outputs": [
        {
          "internalType": "bool",
          "name": "",
          "type": "bool"
        }
      ],
      "stateMutability": "view",
      "type": "function"
    },
    {
      "inputs": [],
      "name": "usdcToken",
      "outputs": [
        {
          "internalType": "contract IERC20",
          "name": "",
          "type": "address"
        }
      ],
      "stateMutability": "view",
      "type": "function"
    },
    {
      "inputs": [
        {
          "internalType": "address",
          "name": "to",
          "type": "address"
        },
        {
          "internalType": "uint256",
          "name": "amount",
          "type": "uint256"
        }
      ],
      "name": "withdrawFunds",
      "outputs": [],
      "stateMutability": "nonpayable",
      "type": "function"
    }
  ],
  "bytecode": "0x608060405234801561001057600080fd5b50604051610b66380380610b6683398101604081905261002f91610163565b6001805561003e60003361009b565b506100697fa49807205ce4d355092ef5a8a18f56e8913cf4a201fbe287825b095693c217753361009b565b50600280546001600160a01b039384166001600160a01b03199182161790915560038054929093169116179055610196565b6000828152602081815260408083206001600160a01b038516845290915281205460ff1661013d576000838152602081815260408083206001600160a01b03861684529091529020805460ff191660011790556100f53390565b6001600160a01b0316826001600160a01b0316847f2f8788117e7eff1d82e926ec794901d17c78024a50270940304540a733656f0d60405160405180910390a4506001610141565b5060005b92915050565b80516001600160a01b038116811461015e57600080fd5b919050565b6000806040838503121561017657600080fd5b61017f83610147565b915061018d60208401610147565b90509250929050565b6109c1806101a56000396000f3fe608060405234801561001057600080fd5b50600436106100b45760003560e01c806375b238fc1161007157806375b238fc1461017857806391d148541461019f578063a217fddf146101b2578063c1075329146101ba578063c28f4392146101cd578063d547741f146101e057600080fd5b806301ffc9a7146100b957806311eac855146100e1578063248a9ca31461010c5780632f2ff15d1461013d57806336568abe14610152578063514efb3714610165575b600080fd5b6100cc6100c7366004610872565b6101f3565b60405190151581526020015b60405180910390f35b6002546100f4906001600160a01b031681565b6040516001600160a01b0390911681526020016100d8565b61012f61011a3660046108a3565b60009081526020819052604090206001015490565b6040519081526020016100d8565b61015061014b3660046108d8565b61022a565b005b6101506101603660046108d8565b610255565b610150610173366004610904565b61028d565b61012f7fa49807205ce4d355092ef5a8a18f56e8913cf4a201fbe287825b095693c2177581565b6100cc6101ad3660046108d8565b610478565b61012f600081565b6101506101c8366004610926565b6104a1565b6003546100f4906001600160a01b031681565b6101506101ee3660046108d8565b6106e0565b60006001600160e01b03198216637965db0b60e01b148061022457506301ffc9a760e01b6001600160e01b03198316145b92915050565b60008281526020819052604090206001015461024581610705565b61024f8383610712565b50505050565b6001600160a01b038116331461027e5760405163334bd91960e11b815260040160405180910390fd5b61028882826107a4565b505050565b61029561080f565b600081116102ea5760405162461bcd60e51b815260206004820152601d60248201527f416d6f756e74206d7573742062652067726561746572207468616e203000000060448201526064015b60405180910390fd5b6002546040516323b872dd60e01b8152336004820152306024820152604481018390526000916001600160a01b0316906323b872dd906064016020604051808303816000875af1158015610342573d6000803e3d6000fd5b505050506040513d601f19601f820116820180604052508101906103669190610950565b9050806103ac5760405162461bcd60e51b81526020600482015260146024820152731554d110c81d1c985b9cd9995c8819985a5b195960621b60448201526064016102e1565b60035460405163a4b645eb60e01b8152336004820152602481018590526044810184905260a06064820152600060a4820181905260c0608483015260c48201526001600160a01b039091169063a4b645eb9060e401600060405180830381600087803b15801561041b57600080fd5b505af115801561042f573d6000803e3d6000fd5b50506040518481528592503391507f0db13e87b3f9c3b8f5f3acad928df55c52ba6bf7795af4ec069de5e23caacb379060200160405180910390a35061047460018055565b5050565b6000918252602082815260408084206001600160a01b0393909316845291905290205460ff1690565b7fa49807205ce4d355092ef5a8a18f56e8913cf4a201fbe287825b095693c217756104cb81610705565b6104d361080f565b6001600160a01b03831661051b5760405162461bcd60e51b815260206004820152600f60248201526e496e76616c6964206164647265737360881b60448201526064016102e1565b6002546040516370a0823160e01b815230600482015283916001600160a01b0316906370a0823190602401602060405180830381865afa158015610563573d6000803e3d6000fd5b505050506040513d601f19601f820116820180604052508101906105879190610972565b10156105cc5760405162461bcd60e51b8152602060048201526014602482015273496e73756666696369656e742062616c616e636560601b60448201526064016102e1565b60025460405163a9059cbb60e01b81526001600160a01b03858116600483015260248201859052600092169063a9059cbb906044016020604051808303816000875af1158015610620573d6000803e3d6000fd5b505050506040513d601f19601f820116820180604052508101906106449190610950565b9050806106935760405162461bcd60e51b815260206004820152601860248201527f5769746864726177207472616e73666572206661696c6564000000000000000060448201526064016102e1565b836001600160a01b03167feaff4b37086828766ad3268786972c0cd24259d4c87a80f9d3963a3c3d999b0d846040516106ce91815260200190565b60405180910390a25061028860018055565b6000828152602081905260409020600101546106fb81610705565b61024f83836107a4565b61070f8133610839565b50565b600061071e8383610478565b61079c576000838152602081815260408083206001600160a01b03861684529091529020805460ff191660011790556107543390565b6001600160a01b0316826001600160a01b0316847f2f8788117e7eff1d82e926ec794901d17c78024a50270940304540a733656f0d60405160405180910390a4506001610224565b506000610224565b60006107b08383610478565b1561079c576000838152602081815260408083206001600160a01b0386168085529252808320805460ff1916905551339286917ff6391f5c32d9c69d2a47ea670b442974b53935d1edc7fd64eb21e047a839171b9190a4506001610224565b60026001540361083257604051633ee5aeb560e01b815260040160405180910390fd5b6002600155565b6108438282610478565b6104745760405163e2517d3f60e01b81526001600160a01b0382166004820152602481018390526044016102e1565b60006020828403121561088457600080fd5b81356001600160e01b03198116811461089c57600080fd5b9392505050565b6000602082840312156108b557600080fd5b5035919050565b80356001600160a01b03811681146108d357600080fd5b919050565b600080604083850312156108eb57600080fd5b823591506108fb602084016108bc565b90509250929050565b6000806040838503121561091757600080fd5b50508035926020909101359150565b6000806040838503121561093957600080fd5b610942836108bc565b946020939093013593505050565b60006020828403121561096257600080fd5b8151801515811461089c57600080fd5b60006020828403121561098457600080fd5b505191905056fea26469706673582212204da0416c8f2287735a236f7cfabbd43895bf5684b8f374eb0fdda39cf7358be164736f6c63430008140033",
  "linkReferences": {},
  "deployedLinkReferences": {}
}