{
  "_format": "hh-sol-artifact-1",
  "contractName": "YieldDistributor",
  "sourceName": "contracts/YieldDistributor.sol",
  "abi": [
    {
      "inputs": [
        {
          "internalType": "address",
          "name": "_usdcToken",
          "type": "address"
        },
        {
          "internalType": "address",
          "name": "_bondToken",
          "type": "address"
        },
        {
          "internalType": "uint256",
          "name": "_targetBondId",
          "type": "uint256"
        }
      ],
      "stateMutability": "nonpayable",
      "type": "constructor"
    },
    {
      "inputs": [],
      "name": "AccessControlBadConfirmation",
      "type": "error"
    },
    {
      "inputs": [
        {
          "internalType": "address",
          "name": "account",
          "type": "address"
        },
        {
          "internalType": "bytes32",
          "name": "neededRole",
          "type": "bytes32"
        }
      ],
      "name": "AccessControlUnauthorizedAccount",
      "type": "error"
    },
    {
      "inputs": [],
      "name": "ReentrancyGuardReentrantCall",
      "type": "error"
    },
    {
      "anonymous": false,
      "inputs": [
        {
          "indexed": true,
          "internalType": "bytes32",
          "name": "role",
          "type": "bytes32"
        },
        {
          "indexed": true,
          "internalType": "bytes32",
          "name": "previousAdminRole",
          "type": "bytes32"
        },
        {
          "indexed": true,
          "internalType": "bytes32",
          "name": "newAdminRole",
          "type": "bytes32"
        }
      ],
      "name": "RoleAdminChanged",
      "type": "event"
    },
    {
      "anonymous": false,
      "inputs": [
        {
          "indexed": true,
          "internalType": "bytes32",
          "name": "role",
          "type": "bytes32"
        },
        {
          "indexed": true,
          "internalType": "address",
          "name": "account",
          "type": "address"
        },
        {
          "indexed": true,
          "internalType": "address",
          "name": "sender",
          "type": "address"
        }
      ],
      "name": "RoleGranted",
      "type": "event"
    },
    {
      "anonymous": false,
      "inputs": [
        {
          "indexed": true,
          "internalType": "bytes32",
          "name": "role",
          "type": "bytes32"
        },
        {
          "indexed": true,
          "internalType": "address",
          "name": "account",
          "type": "address"
        },
        {
          "indexed": true,
          "internalType": "address",
          "name": "sender",
          "type": "address"
        }
      ],
      "name": "RoleRevoked",
      "type": "event"
    },
    {
      "anonymous": false,
      "inputs": [
        {
          "indexed": true,
          "internalType": "address",
          "name": "user",
          "type": "address"
        },
        {
          "indexed": false,
          "internalType": "uint256",
          "name": "amount",
          "type": "uint256"
        }
      ],
      "name": "YieldClaimed",
      "type": "event"
    },
    {
      "anonymous": false,
      "inputs": [
        {
          "indexed": false,
          "internalType": "uint256",
          "name": "amount",
          "type": "uint256"
        },
        {
          "indexed": false,
          "internalType": "uint256",
          "name": "newRewardPerToken",
          "type": "uint256"
        }
      ],
      "name": "YieldDeposited",
      "type": "event"
    },
    {
      "inputs": [],
      "name": "DEFAULT_ADMIN_ROLE",
      "outputs": [
        {
          "internalType": "bytes32",
          "name": "",
          "type": "bytes32"
        }
      ],
      "stateMutability": "view",
      "type": "function"
    },
    {
      "inputs": [],
      "name": "DISTRIBUTOR_ROLE",
      "outputs": [
        {
          "internalType": "bytes32",
          "name": "",
          "type": "bytes32"
        }
      ],
      "stateMutability": "view",
      "type": "function"
    },
    {
      "inputs": [],
      "name": "PRECISION_FACTOR",
      "outputs": [
        {
          "internalType": "uint256",
          "name": "",
          "type": "uint256"
        }
      ],
      "stateMutability": "view",
      "type": "function"
    },
    {
      "inputs": [],
      "name": "bondToken",
      "outputs": [
        {
          "internalType": "contract BondToken",
          "name": "",
          "type": "address"
        }
      ],
      "stateMutability": "view",
      "type": "function"
    },
    {
      "inputs": [],
      "name": "claimYield",
      "outputs": [],
      "stateMutability": "nonpayable",
      "type": "function"
    },
    {
      "inputs": [
        {
          "internalType": "uint256",
          "name": "amount",
          "type": "uint256"
        }
      ],
      "name": "depositYield",
      "outputs": [],
      "stateMutability": "nonpayable",
      "type": "function"
    },
    {
      "inputs": [
        {
          "internalType": "address",
          "name": "account",
          "type": "address"
        }
      ],
      "name": "earned",
      "outputs": [
        {
          "internalType": "uint256",
          "name": "",
          "type": "uint256"
        }
      ],
      "stateMutability": "view",
      "type": "function"
    },
    {
      "inputs": [
        {
          "internalType": "bytes32",
          "name": "role",
          "type": "bytes32"
        }
      ],
      "name": "getRoleAdmin",
      "outputs": [
        {
          "internalType": "bytes32",
          "name": "",
          "type": "bytes32"
        }
      ],
      "stateMutability": "view",
      "type": "function"
    },
    {
      "inputs": [
        {
          "internalType": "bytes32",
          "name": "role",
          "type": "bytes32"
        },
        {
          "internalType": "address",
          "name": "account",
          "type": "address"
        }
      ],
      "name": "grantRole",
      "outputs": [],
      "stateMutability": "nonpayable",
      "type": "function"
    },
    {
      "inputs": [
        {
          "internalType": "bytes32",
          "name": "role",
          "type": "bytes32"
        },
        {
          "internalType": "address",
          "name": "account",
          "type": "address"
        }
      ],
      "name": "hasRole",
      "outputs": [
        {
          "internalType": "bool",
          "name": "",
          "type": "bool"
        }
      ],
      "stateMutability": "view",
      "type": "function"
    },
    {
      "inputs": [
        {
          "internalType": "address",
          "name": "",
          "type": "address"
        },
        {
          "internalType": "address",
          "name": "",
          "type": "address"
        },
        {
          "internalType": "uint256[]",
          "name": "",
          "type": "uint256[]"
        },
        {
          "internalType": "uint256[]",
          "name": "",
          "type": "uint256[]"
        },
        {
          "internalType": "bytes",
          "name": "",
          "type": "bytes"
        }
      ],
      "name": "onERC1155BatchReceived",
      "outputs": [
        {
          "internalType": "bytes4",
          "name": "",
          "type": "bytes4"
        }
      ],
      "stateMutability": "nonpayable",
      "type": "function"
    },
    {
      "inputs": [
        {
          "internalType": "address",
          "name": "",
          "type": "address"
        },
        {
          "internalType": "address",
          "name": "",
          "type": "address"
        },
        {
          "internalType": "uint256",
          "name": "",
          "type": "uint256"
        },
        {
          "internalType": "uint256",
          "name": "",
          "type": "uint256"
        },
        {
          "internalType": "bytes",
          "name": "",
          "type": "bytes"
        }
      ],
      "name": "onERC1155Received",
      "outputs": [
        {
          "internalType": "bytes4",
          "name": "",
          "type": "bytes4"
        }
      ],
      "stateMutability": "nonpayable",
      "type": "function"
    },
    {
      "inputs": [
        {
          "internalType": "bytes32",
          "name": "role",
          "type": "bytes32"
        },
        {
          "internalType": "address",
          "name": "callerConfirmation",
          "type": "address"
        }
      ],
      "name": "renounceRole",
      "outputs": [],
      "stateMutability": "nonpayable",
      "type": "function"
    },
    {
      "inputs": [
        {
          "internalType": "bytes32",
          "name": "role",
          "type": "bytes32"
        },
        {
          "internalType": "address",
          "name": "account",
          "type": "address"
        }
      ],
      "name": "revokeRole",
      "outputs": [],
      "stateMutability": "nonpayable",
      "type": "function"
    },
    {
      "inputs": [],
      "name": "rewardPerToken",
      "outputs": [
        {
          "internalType": "uint256",
          "name": "",
          "type": "uint256"
        }
      ],
      "stateMutability": "view",
      "type": "function"
    },
    {
      "inputs": [],
      "name": "rewardPerTokenStored",
      "outputs": [
        {
          "internalType": "uint256",
          "name": "",
          "type": "uint256"
        }
      ],
      "stateMutability": "view",
      "type": "function"
    },
    {
      "inputs": [
        {
          "internalType": "address",
          "name": "",
          "type": "address"
        }
      ],
      "name": "rewards",
      "outputs": [
        {
          "internalType": "uint256",
          "name": "",
          "type": "uint256"
        }
      ],
      "stateMutability": "view",
      "type": "function"
    },
    {
      "inputs": [
        {
          "internalType": "uint256",
          "name": "amount",
          "type": "uint256"
        }
      ],
      "name": "stake",
      "outputs": [],
      "stateMutability": "nonpayable",
      "type": "function"
    },
    {
      "inputs": [
        {
          "internalType": "bytes4",
          "name": "interfaceId",
          "type": "bytes4"
        }
      ],
      "name": "supportsInterface",
      "outputs": [
        {
          "internalType": "bool",
          "name": "",
          "type": "bool"
        }
      ],
      "stateMutability": "view",
      "type": "function"
    },
    {
      "inputs": [],
      "name": "targetBondId",
      "outputs": [
        {
          "internalType": "uint256",
          "name": "",
          "type": "uint256"
        }
      ],
      "stateMutability": "view",
      "type": "function"
    },
    {
      "inputs": [],
      "name": "usdcToken",
      "outputs": [
        {
          "internalType": "contract IERC20",
          "name": "",
          "type": "address"
        }
      ],
      "stateMutability": "view",
      "type": "function"
    },
    {
      "inputs": [
        {
          "internalType": "address",
          "name": "",
          "type": "address"
        }
      ],
      "name": "userRewardPerTokenPaid",
      "outputs": [
        {
          "internalType": "uint256",
          "name": "",
          "type": "uint256"
        }
      ],
      "stateMutability": "view",
      "type": "function"
    },
    {
      "inputs": [
        {
          "internalType": "uint256",
          "name": "amount",
          "type": "uint256"
        }
      ],
      "name": "withdraw",
      "outputs": [],
      "stateMutability": "nonpayable",
      "type": "function"
    }
  ],
  "bytecode": "0x60806040523480156200001157600080fd5b506040516200129138038062001291833981016040819052620000349162000178565b6001805562000045600033620000ac565b50620000727ffbd454f36a7e1a388bd6fc3ab10d434aa4578f811acbbcf33afb1c697486313c33620000ac565b50600280546001600160a01b039485166001600160a01b0319918216179091556003805493909416921691909117909155600455620001b9565b6000828152602081815260408083206001600160a01b038516845290915281205460ff1662000151576000838152602081815260408083206001600160a01b03861684529091529020805460ff19166001179055620001083390565b6001600160a01b0316826001600160a01b0316847f2f8788117e7eff1d82e926ec794901d17c78024a50270940304540a733656f0d60405160405180910390a450600162000155565b5060005b92915050565b80516001600160a01b03811681146200017357600080fd5b919050565b6000806000606084860312156200018e57600080fd5b62000199846200015b565b9250620001a9602085016200015b565b9150604084015190509250925092565b6110c880620001c96000396000f3fe608060405234801561001057600080fd5b506004361061014c5760003560e01c80638b876347116100c3578063ccd34cd51161007c578063ccd34cd514610300578063cd3daf9d1461030f578063d547741f14610317578063df136d651461032a578063f0bd87cc14610333578063f23a6e611461035a57600080fd5b80638b8763471461026757806391d1485414610287578063a217fddf1461029a578063a694fc3a146102a2578063bc197c81146102b5578063c28f4392146102ed57600080fd5b80632e1a7d4d116101155780632e1a7d4d146102085780632f2ff15d1461021d57806336568abe14610230578063406cf2291461024357806376092d191461024b5780637cf4c01b1461025457600080fd5b80628cc2621461015157806301ffc9a7146101775780630700037d1461019a57806311eac855146101ba578063248a9ca3146101e5575b600080fd5b61016461015f366004610cec565b610379565b6040519081526020015b60405180910390f35b61018a610185366004610d0e565b6103f6565b604051901515815260200161016e565b6101646101a8366004610cec565b60076020526000908152604090205481565b6002546101cd906001600160a01b031681565b6040516001600160a01b03909116815260200161016e565b6101646101f3366004610d38565b60009081526020819052604090206001015490565b61021b610216366004610d38565b61042b565b005b61021b61022b366004610d51565b6105db565b61021b61023e366004610d51565b610606565b61021b61063e565b61016460045481565b61021b610262366004610d38565b6107c2565b610164610275366004610cec565b60066020526000908152604090205481565b61018a610295366004610d51565b6109b6565b610164600081565b61021b6102b0366004610d38565b6109df565b6102d46102c3366004610eb4565b63bc197c8160e01b95945050505050565b6040516001600160e01b0319909116815260200161016e565b6003546101cd906001600160a01b031681565b610164670de0b6b3a764000081565b610164610b23565b61021b610325366004610d51565b610b3d565b61016460055481565b6101647ffbd454f36a7e1a388bd6fc3ab10d434aa4578f811acbbcf33afb1c697486313c81565b6102d4610368366004610f5e565b63f23a6e6160e01b95945050505050565b6001600160a01b0381166000908152600760209081526040808320546006909252822054670de0b6b3a7640000906103af610b23565b6103b99190610fd9565b6001600160a01b0385166000908152600860205260409020546103dc9190610fec565b6103e69190611003565b6103f09190611025565b92915050565b60006001600160e01b03198216637965db0b60e01b14806103f057506301ffc9a760e01b6001600160e01b03198316146103f0565b610433610b62565b3361043c610b23565b6005556001600160a01b038116156104835761045781610379565b6001600160a01b0382166000908152600760209081526040808320939093556005546006909152919020555b600082116104cc5760405162461bcd60e51b8152602060048201526011602482015270043616e6e6f74207769746864726177203607c1b60448201526064015b60405180910390fd5b3360009081526008602052604090205482111561052b5760405162461bcd60e51b815260206004820152601b60248201527f496e73756666696369656e74207374616b65642062616c616e6365000000000060448201526064016104c3565b816009600082825461053d9190610fd9565b90915550503360009081526008602052604081208054849290610561908490610fd9565b909155505060035460048054604051637921219560e11b81526001600160a01b039093169263f242432a9261059c9230923392899101611038565b600060405180830381600087803b1580156105b657600080fd5b505af11580156105ca573d6000803e3d6000fd5b50505050506105d860018055565b50565b6000828152602081905260409020600101546105f681610b8c565b6106008383610b96565b50505050565b6001600160a01b038116331461062f5760405163334bd91960e11b815260040160405180910390fd5b6106398282610c28565b505050565b610646610b62565b3361064f610b23565b6005556001600160a01b038116156106965761066a81610379565b6001600160a01b0382166000908152600760209081526040808320939093556005546006909152919020555b3360009081526007602052604090205480156107b55733600081815260076020526040808220829055600254905163a9059cbb60e01b815260048101939093526024830184905290916001600160a01b039091169063a9059cbb906044016020604051808303816000875af1158015610713573d6000803e3d6000fd5b505050506040513d601f19601f820116820180604052508101906107379190611070565b90508061077e5760405162461bcd60e51b8152602060048201526015602482015274165a595b19081d1c985b9cd9995c8819985a5b1959605a1b60448201526064016104c3565b60405182815233907fc04825ba3f383b602255d2a13065a68e325c65c9e0ed5d031ea2b06f641873af9060200160405180910390a2505b50506107c060018055565b565b6107ca610b62565b7ffbd454f36a7e1a388bd6fc3ab10d434aa4578f811acbbcf33afb1c697486313c6107f481610b8c565b600082116108395760405162461bcd60e51b81526020600482015260126024820152710416d6f756e74206d757374206265203e20360741b60448201526064016104c3565b60006009541161087e5760405162461bcd60e51b815260206004820152601060248201526f139bc81d1bdad95b9cc81cdd185ad95960821b60448201526064016104c3565b6002546040516323b872dd60e01b8152336004820152306024820152604481018490526000916001600160a01b0316906323b872dd906064016020604051808303816000875af11580156108d6573d6000803e3d6000fd5b505050506040513d601f19601f820116820180604052508101906108fa9190611070565b9050806109405760405162461bcd60e51b81526020600482015260146024820152731554d110c81d1c985b9cd9995c8819985a5b195960621b60448201526064016104c3565b600954610955670de0b6b3a764000085610fec565b61095f9190611003565b60055461096c9190611025565b60058190556040805185815260208101929092527fa248d81b377afe8736fe397f5a9f8f0d7c581e67ff6ae4037df29a672a92133b910160405180910390a150506105d860018055565b6000918252602082815260408084206001600160a01b0393909316845291905290205460ff1690565b6109e7610b62565b336109f0610b23565b6005556001600160a01b03811615610a3757610a0b81610379565b6001600160a01b0382166000908152600760209081526040808320939093556005546006909152919020555b60008211610a785760405162461bcd60e51b815260206004820152600e60248201526d043616e6e6f74207374616b6520360941b60448201526064016104c3565b60035460048054604051637921219560e11b81526001600160a01b039093169263f242432a92610aae9233923092899101611038565b600060405180830381600087803b158015610ac857600080fd5b505af1158015610adc573d6000803e3d6000fd5b505050508160096000828254610af29190611025565b90915550503360009081526008602052604081208054849290610b16908490611025565b9091555050600180555050565b6000600954600003610b36575060055490565b5060055490565b600082815260208190526040902060010154610b5881610b8c565b6106008383610c28565b600260015403610b8557604051633ee5aeb560e01b815260040160405180910390fd5b6002600155565b6105d88133610c93565b6000610ba283836109b6565b610c20576000838152602081815260408083206001600160a01b03861684529091529020805460ff19166001179055610bd83390565b6001600160a01b0316826001600160a01b0316847f2f8788117e7eff1d82e926ec794901d17c78024a50270940304540a733656f0d60405160405180910390a45060016103f0565b5060006103f0565b6000610c3483836109b6565b15610c20576000838152602081815260408083206001600160a01b0386168085529252808320805460ff1916905551339286917ff6391f5c32d9c69d2a47ea670b442974b53935d1edc7fd64eb21e047a839171b9190a45060016103f0565b610c9d82826109b6565b610ccc5760405163e2517d3f60e01b81526001600160a01b0382166004820152602481018390526044016104c3565b5050565b80356001600160a01b0381168114610ce757600080fd5b919050565b600060208284031215610cfe57600080fd5b610d0782610cd0565b9392505050565b600060208284031215610d2057600080fd5b81356001600160e01b031981168114610d0757600080fd5b600060208284031215610d4a57600080fd5b5035919050565b60008060408385031215610d6457600080fd5b82359150610d7460208401610cd0565b90509250929050565b634e487b7160e01b600052604160045260246000fd5b604051601f8201601f1916810167ffffffffffffffff81118282101715610dbc57610dbc610d7d565b604052919050565b600082601f830112610dd557600080fd5b8135602067ffffffffffffffff821115610df157610df1610d7d565b8160051b610e00828201610d93565b9283528481018201928281019087851115610e1a57600080fd5b83870192505b84831015610e3957823582529183019190830190610e20565b979650505050505050565b600082601f830112610e5557600080fd5b813567ffffffffffffffff811115610e6f57610e6f610d7d565b610e82601f8201601f1916602001610d93565b818152846020838601011115610e9757600080fd5b816020850160208301376000918101602001919091529392505050565b600080600080600060a08688031215610ecc57600080fd5b610ed586610cd0565b9450610ee360208701610cd0565b9350604086013567ffffffffffffffff80821115610f0057600080fd5b610f0c89838a01610dc4565b94506060880135915080821115610f2257600080fd5b610f2e89838a01610dc4565b93506080880135915080821115610f4457600080fd5b50610f5188828901610e44565b9150509295509295909350565b600080600080600060a08688031215610f7657600080fd5b610f7f86610cd0565b9450610f8d60208701610cd0565b93506040860135925060608601359150608086013567ffffffffffffffff811115610fb757600080fd5b610f5188828901610e44565b634e487b7160e01b600052601160045260246000fd5b818103818111156103f0576103f0610fc3565b80820281158282048414176103f0576103f0610fc3565b60008261102057634e487b7160e01b600052601260045260246000fd5b500490565b808201808211156103f0576103f0610fc3565b6001600160a01b0394851681529290931660208301526040820152606081019190915260a06080820181905260009082015260c00190565b60006020828403121561108257600080fd5b81518015158114610d0757600080fdfea264697066735822122044fa91c8574343e278b089df7bb1fe2f63778b90b67eaca5f19b7379f04112b264736f6c63430008140033",
  "linkReferences": {},
  "deployedLinkReferences": {}
}